{
  "_format": "hh-sol-artifact-1",
  "contractName": "SentinelVault",
  "sourceName": "contracts/SentinelVault.sol",
  "abi": [
    {
      "inputs": [
        {
          "internalType": "address",
          "name": "_aavePool",
          "type": "address"
        },
        {
          "internalType": "address",
          "name": "_treasury",
          "type": "address"
        },
        {
          "internalType": "uint256",
          "name": "_initialThreshold",
          "type": "uint256"
        },
        {
          "internalType": "address",
          "name": "_admin",
          "type": "address"
        },
        {
          "internalType": "address",
          "name": "_oracle",
          "type": "address"
        }
      ],
      "stateMutability": "nonpayable",
      "type": "constructor"
    },
    {
      "inputs": [],
      "name": "AccessControlBadConfirmation",
      "type": "error"
    },
    {
      "inputs": [
        {
          "internalType": "address",
          "name": "account",
          "type": "address"
        },
        {
          "internalType": "bytes32",
          "name": "neededRole",
          "type": "bytes32"
        }
      ],
      "name": "AccessControlUnauthorizedAccount",
      "type": "error"
    },
    {
      "inputs": [],
      "name": "ReentrancyGuardReentrantCall",
      "type": "error"
    },
    {
      "inputs": [
        {
          "internalType": "address",
          "name": "token",
          "type": "address"
        }
      ],
      "name": "SafeERC20FailedOperation",
      "type": "error"
    },
    {
      "inputs": [],
      "name": "Vault__AssetNotSupported",
      "type": "error"
    },
    {
      "inputs": [],
      "name": "Vault__InsufficientBalance",
      "type": "error"
    },
    {
      "inputs": [],
      "name": "Vault__RiskTooHigh",
      "type": "error"
    },
    {
      "inputs": [],
      "name": "Vault__ShieldActive",
      "type": "error"
    },
    {
      "inputs": [],
      "name": "Vault__Unauthorized",
      "type": "error"
    },
    {
      "anonymous": false,
      "inputs": [
        {
          "indexed": true,
          "internalType": "address",
          "name": "asset",
          "type": "address"
        },
        {
          "indexed": true,
          "internalType": "bool",
          "name": "supported",
          "type": "bool"
        }
      ],
      "name": "AssetSupportToggled",
      "type": "event"
    },
    {
      "anonymous": false,
      "inputs": [
        {
          "indexed": true,
          "internalType": "address",
          "name": "user",
          "type": "address"
        },
        {
          "indexed": true,
          "internalType": "address",
          "name": "asset",
          "type": "address"
        },
        {
          "indexed": true,
          "internalType": "uint256",
          "name": "amount",
          "type": "uint256"
        },
        {
          "indexed": false,
          "internalType": "uint256",
          "name": "fee",
          "type": "uint256"
        }
      ],
      "name": "Deposited",
      "type": "event"
    },
    {
      "anonymous": false,
      "inputs": [
        {
          "indexed": true,
          "internalType": "bool",
          "name": "active",
          "type": "bool"
        }
      ],
      "name": "EmergencyShieldToggled",
      "type": "event"
    },
    {
      "anonymous": false,
      "inputs": [
        {
          "indexed": true,
          "internalType": "uint256",
          "name": "newScore",
          "type": "uint256"
        },
        {
          "indexed": true,
          "internalType": "bool",
          "name": "shieldActivated",
          "type": "bool"
        }
      ],
      "name": "RiskScoreUpdated",
      "type": "event"
    },
    {
      "anonymous": false,
      "inputs": [
        {
          "indexed": true,
          "internalType": "bytes32",
          "name": "role",
          "type": "bytes32"
        },
        {
          "indexed": true,
          "internalType": "bytes32",
          "name": "previousAdminRole",
          "type": "bytes32"
        },
        {
          "indexed": true,
          "internalType": "bytes32",
          "name": "newAdminRole",
          "type": "bytes32"
        }
      ],
      "name": "RoleAdminChanged",
      "type": "event"
    },
    {
      "anonymous": false,
      "inputs": [
        {
          "indexed": true,
          "internalType": "bytes32",
          "name": "role",
          "type": "bytes32"
        },
        {
          "indexed": true,
          "internalType": "address",
          "name": "account",
          "type": "address"
        },
        {
          "indexed": true,
          "internalType": "address",
          "name": "sender",
          "type": "address"
        }
      ],
      "name": "RoleGranted",
      "type": "event"
    },
    {
      "anonymous": false,
      "inputs": [
        {
          "indexed": true,
          "internalType": "bytes32",
          "name": "role",
          "type": "bytes32"
        },
        {
          "indexed": true,
          "internalType": "address",
          "name": "account",
          "type": "address"
        },
        {
          "indexed": true,
          "internalType": "address",
          "name": "sender",
          "type": "address"
        }
      ],
      "name": "RoleRevoked",
      "type": "event"
    },
    {
      "anonymous": false,
      "inputs": [
        {
          "indexed": true,
          "internalType": "address",
          "name": "user",
          "type": "address"
        },
        {
          "indexed": true,
          "internalType": "address",
          "name": "asset",
          "type": "address"
        },
        {
          "indexed": true,
          "internalType": "uint256",
          "name": "amount",
          "type": "uint256"
        },
        {
          "indexed": false,
          "internalType": "uint256",
          "name": "fee",
          "type": "uint256"
        }
      ],
      "name": "Withdrawn",
      "type": "event"
    },
    {
      "inputs": [],
      "name": "AAVE_POOL",
      "outputs": [
        {
          "internalType": "contract IAavePool",
          "name": "",
          "type": "address"
        }
      ],
      "stateMutability": "view",
      "type": "function"
    },
    {
      "inputs": [],
      "name": "DEFAULT_ADMIN_ROLE",
      "outputs": [
        {
          "internalType": "bytes32",
          "name": "",
          "type": "bytes32"
        }
      ],
      "stateMutability": "view",
      "type": "function"
    },
    {
      "inputs": [],
      "name": "DEPOSIT_FEE_BPS",
      "outputs": [
        {
          "internalType": "uint256",
          "name": "",
          "type": "uint256"
        }
      ],
      "stateMutability": "view",
      "type": "function"
    },
    {
      "inputs": [],
      "name": "EMERGENCY_WITHDRAW_FEE_BPS",
      "outputs": [
        {
          "internalType": "uint256",
          "name": "",
          "type": "uint256"
        }
      ],
      "stateMutability": "view",
      "type": "function"
    },
    {
      "inputs": [],
      "name": "FEE_DENOMINATOR",
      "outputs": [
        {
          "internalType": "uint256",
          "name": "",
          "type": "uint256"
        }
      ],
      "stateMutability": "view",
      "type": "function"
    },
    {
      "inputs": [],
      "name": "ORACLE_ROLE",
      "outputs": [
        {
          "internalType": "bytes32",
          "name": "",
          "type": "bytes32"
        }
      ],
      "stateMutability": "view",
      "type": "function"
    },
    {
      "inputs": [],
      "name": "activateShield",
      "outputs": [],
      "stateMutability": "nonpayable",
      "type": "function"
    },
    {
      "inputs": [],
      "name": "deactivateShield",
      "outputs": [],
      "stateMutability": "nonpayable",
      "type": "function"
    },
    {
      "inputs": [
        {
          "internalType": "address",
          "name": "asset",
          "type": "address"
        },
        {
          "internalType": "uint256",
          "name": "amount",
          "type": "uint256"
        }
      ],
      "name": "deposit",
      "outputs": [],
      "stateMutability": "nonpayable",
      "type": "function"
    },
    {
      "inputs": [
        {
          "internalType": "address",
          "name": "asset",
          "type": "address"
        }
      ],
      "name": "emergencyPull",
      "outputs": [],
      "stateMutability": "nonpayable",
      "type": "function"
    },
    {
      "inputs": [
        {
          "internalType": "bytes32",
          "name": "role",
          "type": "bytes32"
        }
      ],
      "name": "getRoleAdmin",
      "outputs": [
        {
          "internalType": "bytes32",
          "name": "",
          "type": "bytes32"
        }
      ],
      "stateMutability": "view",
      "type": "function"
    },
    {
      "inputs": [
        {
          "internalType": "bytes32",
          "name": "role",
          "type": "bytes32"
        },
        {
          "internalType": "address",
          "name": "account",
          "type": "address"
        }
      ],
      "name": "grantRole",
      "outputs": [],
      "stateMutability": "nonpayable",
      "type": "function"
    },
    {
      "inputs": [
        {
          "internalType": "bytes32",
          "name": "role",
          "type": "bytes32"
        },
        {
          "internalType": "address",
          "name": "account",
          "type": "address"
        }
      ],
      "name": "hasRole",
      "outputs": [
        {
          "internalType": "bool",
          "name": "",
          "type": "bool"
        }
      ],
      "stateMutability": "view",
      "type": "function"
    },
    {
      "inputs": [],
      "name": "isEmergencyShieldActive",
      "outputs": [
        {
          "internalType": "bool",
          "name": "",
          "type": "bool"
        }
      ],
      "stateMutability": "view",
      "type": "function"
    },
    {
      "inputs": [
        {
          "internalType": "bytes32",
          "name": "role",
          "type": "bytes32"
        },
        {
          "internalType": "address",
          "name": "callerConfirmation",
          "type": "address"
        }
      ],
      "name": "renounceRole",
      "outputs": [],
      "stateMutability": "nonpayable",
      "type": "function"
    },
    {
      "inputs": [
        {
          "internalType": "bytes32",
          "name": "role",
          "type": "bytes32"
        },
        {
          "internalType": "address",
          "name": "account",
          "type": "address"
        }
      ],
      "name": "revokeRole",
      "outputs": [],
      "stateMutability": "nonpayable",
      "type": "function"
    },
    {
      "inputs": [],
      "name": "riskScore",
      "outputs": [
        {
          "internalType": "uint256",
          "name": "",
          "type": "uint256"
        }
      ],
      "stateMutability": "view",
      "type": "function"
    },
    {
      "inputs": [],
      "name": "riskThreshold",
      "outputs": [
        {
          "internalType": "uint256",
          "name": "",
          "type": "uint256"
        }
      ],
      "stateMutability": "view",
      "type": "function"
    },
    {
      "inputs": [
        {
          "internalType": "uint256",
          "name": "_newThreshold",
          "type": "uint256"
        }
      ],
      "name": "setRiskThreshold",
      "outputs": [],
      "stateMutability": "nonpayable",
      "type": "function"
    },
    {
      "inputs": [
        {
          "internalType": "address",
          "name": "_newTreasury",
          "type": "address"
        }
      ],
      "name": "setTreasury",
      "outputs": [],
      "stateMutability": "nonpayable",
      "type": "function"
    },
    {
      "inputs": [
        {
          "internalType": "address",
          "name": "",
          "type": "address"
        }
      ],
      "name": "supportedAssets",
      "outputs": [
        {
          "internalType": "bool",
          "name": "",
          "type": "bool"
        }
      ],
      "stateMutability": "view",
      "type": "function"
    },
    {
      "inputs": [
        {
          "internalType": "bytes4",
          "name": "interfaceId",
          "type": "bytes4"
        }
      ],
      "name": "supportsInterface",
      "outputs": [
        {
          "internalType": "bool",
          "name": "",
          "type": "bool"
        }
      ],
      "stateMutability": "view",
      "type": "function"
    },
    {
      "inputs": [
        {
          "internalType": "address",
          "name": "asset",
          "type": "address"
        },
        {
          "internalType": "bool",
          "name": "supported",
          "type": "bool"
        }
      ],
      "name": "toggleAssetSupport",
      "outputs": [],
      "stateMutability": "nonpayable",
      "type": "function"
    },
    {
      "inputs": [
        {
          "internalType": "address",
          "name": "",
          "type": "address"
        }
      ],
      "name": "totalDeposits",
      "outputs": [
        {
          "internalType": "uint256",
          "name": "",
          "type": "uint256"
        }
      ],
      "stateMutability": "view",
      "type": "function"
    },
    {
      "inputs": [],
      "name": "treasury",
      "outputs": [
        {
          "internalType": "address",
          "name": "",
          "type": "address"
        }
      ],
      "stateMutability": "view",
      "type": "function"
    },
    {
      "inputs": [
        {
          "internalType": "uint256",
          "name": "newScore",
          "type": "uint256"
        }
      ],
      "name": "updateRiskScore",
      "outputs": [],
      "stateMutability": "nonpayable",
      "type": "function"
    },
    {
      "inputs": [
        {
          "internalType": "address",
          "name": "",
          "type": "address"
        },
        {
          "internalType": "address",
          "name": "",
          "type": "address"
        }
      ],
      "name": "userBalances",
      "outputs": [
        {
          "internalType": "uint256",
          "name": "",
          "type": "uint256"
        }
      ],
      "stateMutability": "view",
      "type": "function"
    },
    {
      "inputs": [
        {
          "internalType": "address",
          "name": "asset",
          "type": "address"
        },
        {
          "internalType": "uint256",
          "name": "amount",
          "type": "uint256"
        }
      ],
      "name": "withdraw",
      "outputs": [],
      "stateMutability": "nonpayable",
      "type": "function"
    }
  ],
  "bytecode": "0x60a060405234801562000010575f80fd5b50604051620014dd380380620014dd8339810160408190526200003391620001f1565b60017f9b779b17422d0df92223018b32b4d1fa46e071723d6817e2486d003becc55f00556001600160a01b03851615806200007557506001600160a01b038416155b806200008857506001600160a01b038216155b806200009b57506001600160a01b038116155b15620000ba5760405163084312d160e41b815260040160405180910390fd5b6001600160a01b03858116608052600180546001600160a01b0319169186169190911790556003839055620000f05f8362000129565b506200011d7f68e79a7bf1e0bc45d0a330c573bc367f9cf464fd326078812f301165fbda4ef18262000129565b50505050505062000254565b5f828152602081815260408083206001600160a01b038516845290915281205460ff16620001cc575f838152602081815260408083206001600160a01b03861684529091529020805460ff19166001179055620001833390565b6001600160a01b0316826001600160a01b0316847f2f8788117e7eff1d82e926ec794901d17c78024a50270940304540a733656f0d60405160405180910390a4506001620001cf565b505f5b92915050565b80516001600160a01b0381168114620001ec575f80fd5b919050565b5f805f805f60a0868803121562000206575f80fd5b6200021186620001d5565b94506200022160208701620001d5565b9350604086015192506200023860608701620001d5565b91506200024860808701620001d5565b90509295509295909350565b608051611254620002895f395f818161022b01528181610672015281816107a2015281816108510152610b2c01526112545ff3fe608060405234801561000f575f80fd5b50600436106101bb575f3560e01c8063a163458c116100f3578063bfd0299111610093578063e94032561161006e578063e9403256146103d1578063f0f44260146103f0578063f3fef3a314610403578063fa106fc214610416575f80fd5b8063bfd02991146103ab578063d547741f146103b4578063d73792a9146103c7575f80fd5b8063b190c0f8116100ce578063b190c0f814610365578063b2b7211114610378578063b43e6cb414610380578063bd81579e14610389575f80fd5b8063a163458c14610321578063a217fddf14610334578063adb519801461033b575f80fd5b806336568abe1161015e5780636bbf758d116101395780636bbf758d146102e05780637083d1c2146102e857806391d14854146102fb5780639783315c1461030e575f80fd5b806336568abe146102a757806347e7ef24146102ba57806361d027b3146102cd575f80fd5b806308a016751161019957806308a016751461022657806318c7265f14610265578063248a9ca3146102725780632f2ff15d14610294575f80fd5b806301ffc9a7146101bf578063065e6084146101e757806307e2cea5146101f1575b5f80fd5b6101d26101cd36600461104b565b61041e565b60405190151581526020015b60405180910390f35b6101ef610454565b005b6102187f68e79a7bf1e0bc45d0a330c573bc367f9cf464fd326078812f301165fbda4ef181565b6040519081526020016101de565b61024d7f000000000000000000000000000000000000000000000000000000000000000081565b6040516001600160a01b0390911681526020016101de565b6004546101d29060ff1681565b610218610280366004611079565b5f9081526020819052604090206001015490565b6101ef6102a23660046110ab565b6104b3565b6101ef6102b53660046110ab565b6104dd565b6101ef6102c83660046110d5565b610515565b60015461024d906001600160a01b031681565b610218606481565b6101ef6102f6366004611079565b610734565b6101d26103093660046110ab565b610744565b6101ef61031c3660046110fd565b61076c565b6101ef61032f366004611116565b61080c565b6102185f81565b61021861034936600461114f565b600660209081525f928352604080842090915290825290205481565b6101ef610373366004611079565b6108b3565b6101ef61095c565b61021860035481565b6101d26103973660046110fd565b60056020525f908152604090205460ff1681565b61021860025481565b6101ef6103c23660046110ab565b6109bc565b610218620f424081565b6102186103df3660046110fd565b60076020525f908152604090205481565b6101ef6103fe3660046110fd565b6109e0565b6101ef6104113660046110d5565b610a0d565b610218603281565b5f6001600160e01b03198216637965db0b60e01b148061044e57506301ffc9a760e01b6001600160e01b03198316145b92915050565b5f61045e81610c6b565b610466610c75565b6004805460ff191690556040515f907f4227a92852ffae60890f861f944398f7a543dc691ad29ee58aa319dbb278931d908290a26104b060015f805160206111ff83398151915255565b50565b5f828152602081905260409020600101546104cd81610c6b565b6104d78383610c90565b50505050565b6001600160a01b03811633146105065760405163334bd91960e11b815260040160405180910390fd5b6105108282610d1f565b505050565b61051d610c75565b6001600160a01b0382165f9081526005602052604090205460ff166105555760405163e633a58160e01b815260040160405180910390fd5b60045460ff16156105795760405163fb46ac0b60e01b815260040160405180910390fd5b801561071a575f620f424061058f60648461118b565b61059991906111a2565b90505f6105a682846111c1565b90506105bd6001600160a01b038516333086610d88565b81156105dd576001546105dd906001600160a01b03868116911684610dbe565b335f9081526006602090815260408083206001600160a01b03881684529091528120805483929061060f9084906111d4565b90915550506001600160a01b0384165f908152600760205260408120805483929061063b9084906111d4565b909155505060405163617ba03760e01b81526001600160a01b038581166004830152602482018390523060448301525f60648301527f0000000000000000000000000000000000000000000000000000000000000000169063617ba037906084015f604051808303815f87803b1580156106b3575f80fd5b505af11580156106c5573d5f803e3d5ffd5b5050505080846001600160a01b0316336001600160a01b03167ff5681f9d0db1b911ac18ee83d515a1cf1051853a9eae418316a2fdf7dea427c58560405161070f91815260200190565b60405180910390a450505b61073060015f805160206111ff83398151915255565b5050565b5f61073e81610c6b565b50600355565b5f918252602082815260408084206001600160a01b0393909316845291905290205460ff1690565b5f61077681610c6b565b604051631a4ca37b60e21b81526001600160a01b0383811660048301525f1960248301523060448301527f000000000000000000000000000000000000000000000000000000000000000016906369328dec906064016020604051808303815f875af11580156107e8573d5f803e3d5ffd5b505050506040513d601f19601f8201168201806040525081019061051091906111e7565b5f61081681610c6b565b6001600160a01b0383165f908152600560205260409020805460ff19168315801591909117909155610877576108776001600160a01b0384167f00000000000000000000000000000000000000000000000000000000000000005f19610df3565b604051821515906001600160a01b038516907fffe7fbc2d8a114cce41db7839c399e79a648a50f7ef22d86c7fe88a02603e124905f90a3505050565b7f68e79a7bf1e0bc45d0a330c573bc367f9cf464fd326078812f301165fbda4ef16108dd81610c6b565b6108e5610c75565b60028290556003545f9083118015610900575060045460ff16155b1561091757506004805460ff191660019081179091555b6040518115159084907fc689937447c860718db833f2d1579746bf587a8478f71f29e780575dda88fd6c905f90a35061073060015f805160206111ff83398151915255565b5f61096681610c6b565b61096e610c75565b6004805460ff191660019081179091556040517f4227a92852ffae60890f861f944398f7a543dc691ad29ee58aa319dbb278931d905f90a26104b060015f805160206111ff83398151915255565b5f828152602081905260409020600101546109d681610c6b565b6104d78383610d1f565b5f6109ea81610c6b565b50600180546001600160a01b0319166001600160a01b0392909216919091179055565b610a15610c75565b335f9081526006602090815260408083206001600160a01b0386168452909152902054811115610a5857604051634a3ac48360e01b815260040160405180910390fd5b6004545f9060ff1615610a8157620f4240610a7460328461118b565b610a7e91906111a2565b90505b5f610a8c82846111c1565b335f9081526006602090815260408083206001600160a01b0389168452909152812080549293508592909190610ac39084906111c1565b90915550506001600160a01b0384165f9081526007602052604081208054859290610aef9084906111c1565b909155505060045460ff16610bf157604051631a4ca37b60e21b81526001600160a01b038581166004830152602482018590523060448301525f917f0000000000000000000000000000000000000000000000000000000000000000909116906369328dec906064016020604051808303815f875af1158015610b74573d5f803e3d5ffd5b505050506040513d601f19601f82011682018060405250810190610b9891906111e7565b905083811015610bef5760405162461bcd60e51b815260206004820152601b60248201527f5661756c743a2041617665207769746864726177206661696c6564000000000060448201526064015b60405180910390fd5b505b8115610c1157600154610c11906001600160a01b03868116911684610dbe565b610c256001600160a01b0385163383610dbe565b80846001600160a01b0316336001600160a01b03167f91fb9d98b786c57d74c099ccd2beca1739e9f6a81fb49001ca465c4b7591bbe28560405161070f91815260200190565b6104b08133610e7a565b610c7d610eb3565b60025f805160206111ff83398151915255565b5f610c9b8383610744565b610d18575f838152602081815260408083206001600160a01b03861684529091529020805460ff19166001179055610cd03390565b6001600160a01b0316826001600160a01b0316847f2f8788117e7eff1d82e926ec794901d17c78024a50270940304540a733656f0d60405160405180910390a450600161044e565b505f61044e565b5f610d2a8383610744565b15610d18575f838152602081815260408083206001600160a01b0386168085529252808320805460ff1916905551339286917ff6391f5c32d9c69d2a47ea670b442974b53935d1edc7fd64eb21e047a839171b9190a450600161044e565b610d96848484846001610ee4565b6104d757604051635274afe760e01b81526001600160a01b0385166004820152602401610be6565b610dcb8383836001610f51565b61051057604051635274afe760e01b81526001600160a01b0384166004820152602401610be6565b604051636eb1769f60e11b81523060048201526001600160a01b0383811660248301525f919085169063dd62ed3e90604401602060405180830381865afa158015610e40573d5f803e3d5ffd5b505050506040513d601f19601f82011682018060405250810190610e6491906111e7565b90506104d78484610e7585856111d4565b610fb3565b610e848282610744565b6107305760405163e2517d3f60e01b81526001600160a01b038216600482015260248101839052604401610be6565b5f805160206111ff83398151915254600203610ee257604051633ee5aeb560e01b815260040160405180910390fd5b565b6040516323b872dd60e01b5f8181526001600160a01b038781166004528616602452604485905291602083606481808c5af1925060015f51148316610f40578383151615610f34573d5f823e3d81fd5b5f883b113d1516831692505b604052505f60605295945050505050565b60405163a9059cbb60e01b5f8181526001600160a01b038616600452602485905291602083604481808b5af1925060015f51148316610fa7578383151615610f9b573d5f823e3d81fd5b5f873b113d1516831692505b60405250949350505050565b610fbf8383835f611001565b61051057610fd083835f6001611001565b610ff857604051635274afe760e01b81526001600160a01b0384166004820152602401610be6565b610dcb83838360015b60405163095ea7b360e01b5f8181526001600160a01b038616600452602485905291602083604481808b5af1925060015f51148316610fa7578383151615610f9b573d5f823e3d81fd5b5f6020828403121561105b575f80fd5b81356001600160e01b031981168114611072575f80fd5b9392505050565b5f60208284031215611089575f80fd5b5035919050565b80356001600160a01b03811681146110a6575f80fd5b919050565b5f80604083850312156110bc575f80fd5b823591506110cc60208401611090565b90509250929050565b5f80604083850312156110e6575f80fd5b6110ef83611090565b946020939093013593505050565b5f6020828403121561110d575f80fd5b61107282611090565b5f8060408385031215611127575f80fd5b61113083611090565b915060208301358015158114611144575f80fd5b809150509250929050565b5f8060408385031215611160575f80fd5b61116983611090565b91506110cc60208401611090565b634e487b7160e01b5f52601160045260245ffd5b808202811582820484141761044e5761044e611177565b5f826111bc57634e487b7160e01b5f52601260045260245ffd5b500490565b8181038181111561044e5761044e611177565b8082018082111561044e5761044e611177565b5f602082840312156111f7575f80fd5b505191905056fe9b779b17422d0df92223018b32b4d1fa46e071723d6817e2486d003becc55f00a264697066735822122001552348685366afca4a5235c1bd0bf0e4f7bf2688c5778cfdce50c67602f17f64736f6c63430008180033",
  "linkReferences": {},
  "deployedLinkReferences": {}
}