{"contracts/SentinelChainlinkOracle.sol":{"SentinelChainlinkOracle":{"abi":[{"inputs":[{"internalType":"address","name":"_admin","type":"address"},{"internalType":"address","name":"_sequencerUptimeFeed","type":"address"}],"stateMutability":"nonpayable","type":"constructor"},{"inputs":[{"internalType":"address","name":"owner","type":"address"}],"name":"OwnableInvalidOwner","type":"error"},{"inputs":[{"internalType":"address","name":"account","type":"address"}],"name":"OwnableUnauthorizedAccount","type":"error"},{"inputs":[],"name":"Sentinel__InvalidAddress","type":"error"},{"inputs":[],"name":"Sentinel__InvalidPriceFeed","type":"error"},{"inputs":[],"name":"Sentinel__SequencerDown","type":"error"},{"anonymous":false,"inputs":[{"indexed":true,"internalType":"address","name":"previousOwner","type":"address"},{"indexed":true,"internalType":"address","name":"newOwner","type":"address"}],"name":"OwnershipTransferred","type":"event"},{"anonymous":false,"inputs":[{"indexed":true,"internalType":"address","name":"asset","type":"address"},{"indexed":true,"internalType":"address","name":"feed","type":"address"},{"indexed":true,"internalType":"uint256","name":"heartbeat","type":"uint256"}],"name":"PriceFeedUpdated","type":"event"},{"inputs":[],"name":"GRACE_PERIOD_TIME","outputs":[{"internalType":"uint256","name":"","type":"uint256"}],"stateMutability":"view","type":"function"},{"inputs":[{"internalType":"address","name":"asset","type":"address"}],"name":"getRiskScore","outputs":[{"internalType":"uint256","name":"","type":"uint256"}],"stateMutability":"view","type":"function"},{"inputs":[{"internalType":"address","name":"","type":"address"}],"name":"heartbeat","outputs":[{"internalType":"uint256","name":"","type":"uint256"}],"stateMutability":"view","type":"function"},{"inputs":[],"name":"isEmergencyActive","outputs":[{"internalType":"bool","name":"","type":"bool"}],"stateMutability":"view","type":"function"},{"inputs":[],"name":"owner","outputs":[{"internalType":"address","name":"","type":"address"}],"stateMutability":"view","type":"function"},{"inputs":[{"internalType":"address","name":"","type":"address"}],"name":"priceFeeds","outputs":[{"internalType":"address","name":"","type":"address"}],"stateMutability":"view","type":"function"},{"inputs":[],"name":"renounceOwnership","outputs":[],"stateMutability":"nonpayable","type":"function"},{"inputs":[],"name":"sequencerUptimeFeed","outputs":[{"internalType":"address","name":"","type":"address"}],"stateMutability":"view","type":"function"},{"inputs":[{"internalType":"address","name":"asset","type":"address"},{"internalType":"address","name":"feed","type":"address"},{"internalType":"uint256","name":"_heartbeat","type":"uint256"}],"name":"setPriceFeed","outputs":[],"stateMutability":"nonpayable","type":"function"},{"inputs":[{"internalType":"address","name":"newOwner","type":"address"}],"name":"transferOwnership","outputs":[],"stateMutability":"nonpayable","type":"function"}],"evm":{"bytecode":{"linkReferences":{},"object":"60a060405234801561000f575f80fd5b5060405161084b38038061084b83398101604081905261002e91610109565b816001600160a01b03811661005c57604051631e4fbdf760e01b81525f600482015260240160405180910390fd5b6100658161009f565b506001600160a01b03821661008d5760405163be79875760e01b815260040160405180910390fd5b6001600160a01b03166080525061013a565b5f80546001600160a01b038381166001600160a01b0319831681178455604051919092169283917f8be0079c531659141344cd1fd0a4f28419497f9722a3daafe3b4186f6b6457e09190a35050565b80516001600160a01b0381168114610104575f80fd5b919050565b5f806040838503121561011a575f80fd5b610123836100ee565b9150610131602084016100ee565b90509250929050565b6080516106eb6101605f395f8181610117015281816101ab01526101df01526106eb5ff3fe608060405234801561000f575f80fd5b506004361061009b575f3560e01c8063b7a1bb1511610063578063b7a1bb1514610139578063dc08706d14610166578063eceb9a9c14610179578063ed2f86031461018c578063f2fde38b14610195575f80fd5b80635f9515291461009f578063715018a6146100bc5780638da5cb5b146100c65780639dcb511a146100ea578063a726470514610112575b5f80fd5b6100a76101a8565b60405190151581526020015b60405180910390f35b6100c46102f6565b005b5f546001600160a01b03165b6040516001600160a01b0390911681526020016100b3565b6100d26100f83660046105ba565b60016020525f90815260409020546001600160a01b031681565b6100d27f000000000000000000000000000000000000000000000000000000000000000081565b6101586101473660046105ba565b60026020525f908152604090205481565b6040519081526020016100b3565b6101586101743660046105ba565b610309565b6100c46101873660046105da565b610473565b610158610e1081565b6100c46101a33660046105ba565b6104e2565b5f7f00000000000000000000000000000000000000000000000000000000000000006001600160a01b0316156102f1575f805f805f7f00000000000000000000000000000000000000000000000000000000000000006001600160a01b031663feaf968c6040518163ffffffff1660e01b815260040160a060405180830381865afa158015610239573d5f803e3d5ffd5b505050506040513d601f19601f8201168201806040525081019061025d9190610629565b94509450945094509450846001600160501b03165f148061027c575081155b806102985750846001600160501b0316816001600160501b0316105b156102a95760019550505050505090565b6001841480156102c0576001965050505050505090565b6102cd610e106001610689565b6102d785426106a2565b10156102ea576001965050505050505090565b5050505050505b505f90565b6102fe610524565b6103075f610550565b565b6001600160a01b038082165f90815260016020526040812054909116806103335750606492915050565b61033b6101a8565b156103495750606492915050565b5f805f805f856001600160a01b031663feaf968c6040518163ffffffff1660e01b815260040160a060405180830381865afa15801561038a573d5f803e3d5ffd5b505050506040513d601f19601f820116820180604052508101906103ae9190610629565b9450945094509450945060018412806103ce57506001600160501b038516155b806103d7575081155b806103f35750846001600160501b0316816001600160501b0316105b156104065750605a979650505050505050565b5f61041183426106a2565b6001600160a01b038a165f908152600260205260409020549091501580159061045057506001600160a01b0389165f9081526002602052604090205481115b156104645750605098975050505050505050565b50600a98975050505050505050565b61047b610524565b6001600160a01b038381165f81815260016020908152604080832080546001600160a01b0319169588169586179055600290915280822085905551849392917f9133c44a288cf07c9e3c56b4d0cb5982200a180e0c9ea030485ca93950ef19bf91a4505050565b6104ea610524565b6001600160a01b03811661051857604051631e4fbdf760e01b81525f60048201526024015b60405180910390fd5b61052181610550565b50565b5f546001600160a01b031633146103075760405163118cdaa760e01b815233600482015260240161050f565b5f80546001600160a01b038381166001600160a01b0319831681178455604051919092169283917f8be0079c531659141344cd1fd0a4f28419497f9722a3daafe3b4186f6b6457e09190a35050565b80356001600160a01b03811681146105b5575f80fd5b919050565b5f602082840312156105ca575f80fd5b6105d38261059f565b9392505050565b5f805f606084860312156105ec575f80fd5b6105f58461059f565b92506106036020850161059f565b9150604084013590509250925092565b80516001600160501b03811681146105b5575f80fd5b5f805f805f60a0868803121561063d575f80fd5b61064686610613565b945060208601519350604086015192506060860151915061066960808701610613565b90509295509295909350565b634e487b7160e01b5f52601160045260245ffd5b8082018082111561069c5761069c610675565b92915050565b8181038181111561069c5761069c61067556fea2646970667358221220524dd6fcc1e5dfce68be1170c13fb9b78ddd0d7bd58ba6968ca090cd743b30bf64736f6c63430008180033","opcodes":"PUSH1 0xA0 PUSH1 0x40 MSTORE CALLVALUE DUP1 ISZERO PUSH2 0xF JUMPI PUSH0 DUP1 REVERT JUMPDEST POP PUSH1 0x40 MLOAD PUSH2 0x84B CODESIZE SUB DUP1 PUSH2 0x84B DUP4 CODECOPY DUP2 ADD PUSH1 0x40 DUP2 SWAP1 MSTORE PUSH2 0x2E SWAP2 PUSH2 0x109 JUMP JUMPDEST DUP2 PUSH1 0x1 PUSH1 0x1 PUSH1 0xA0 SHL SUB DUP2 AND PUSH2 0x5C JUMPI PUSH1 0x40 MLOAD PUSH4 0x1E4FBDF7 PUSH1 0xE0 SHL DUP2 MSTORE PUSH0 PUSH1 0x4 DUP3 ADD MSTORE PUSH1 0x24 ADD PUSH1 0x40 MLOAD DUP1 SWAP2 SUB SWAP1 REVERT JUMPDEST PUSH2 0x65 DUP2 PUSH2 0x9F JUMP JUMPDEST POP PUSH1 0x1 PUSH1 0x1 PUSH1 0xA0 SHL SUB DUP3 AND PUSH2 0x8D JUMPI PUSH1 0x40 MLOAD PUSH4 0xBE798757 PUSH1 0xE0 SHL DUP2 MSTORE PUSH1 0x4 ADD PUSH1 0x40 MLOAD DUP1 SWAP2 SUB SWAP1 REVERT JUMPDEST PUSH1 0x1 PUSH1 0x1 PUSH1 0xA0 SHL SUB AND PUSH1 0x80 MSTORE POP PUSH2 0x13A JUMP JUMPDEST PUSH0 DUP1 SLOAD PUSH1 0x1 PUSH1 0x1 PUSH1 0xA0 SHL SUB DUP4 DUP2 AND PUSH1 0x1 PUSH1 0x1 PUSH1 0xA0 SHL SUB NOT DUP4 AND DUP2 OR DUP5 SSTORE PUSH1 0x40 MLOAD SWAP2 SWAP1 SWAP3 AND SWAP3 DUP4 SWAP2 PUSH32 0x8BE0079C531659141344CD1FD0A4F28419497F9722A3DAAFE3B4186F6B6457E0 SWAP2 SWAP1 LOG3 POP POP JUMP JUMPDEST DUP1 MLOAD PUSH1 0x1 PUSH1 0x1 PUSH1 0xA0 SHL SUB DUP2 AND DUP2 EQ PUSH2 0x104 JUMPI PUSH0 DUP1 REVERT JUMPDEST SWAP2 SWAP1 POP JUMP JUMPDEST PUSH0 DUP1 PUSH1 0x40 DUP4 DUP6 SUB SLT ISZERO PUSH2 0x11A JUMPI PUSH0 DUP1 REVERT JUMPDEST PUSH2 0x123 DUP4 PUSH2 0xEE JUMP JUMPDEST SWAP2 POP PUSH2 0x131 PUSH1 0x20 DUP5 ADD PUSH2 0xEE JUMP JUMPDEST SWAP1 POP SWAP3 POP SWAP3 SWAP1 POP JUMP JUMPDEST PUSH1 0x80 MLOAD PUSH2 0x6EB PUSH2 0x160 PUSH0 CODECOPY PUSH0 DUP2 DUP2 PUSH2 0x117 ADD MSTORE DUP2 DUP2 PUSH2 0x1AB ADD MSTORE PUSH2 0x1DF ADD MSTORE PUSH2 0x6EB PUSH0 RETURN INVALID PUSH1 0x80 PUSH1 0x40 MSTORE CALLVALUE DUP1 ISZERO PUSH2 0xF JUMPI PUSH0 DUP1 REVERT JUMPDEST POP PUSH1 0x4 CALLDATASIZE LT PUSH2 0x9B JUMPI PUSH0 CALLDATALOAD PUSH1 0xE0 SHR DUP1 PUSH4 0xB7A1BB15 GT PUSH2 0x63 JUMPI DUP1 PUSH4 0xB7A1BB15 EQ PUSH2 0x139 JUMPI DUP1 PUSH4 0xDC08706D EQ PUSH2 0x166 JUMPI DUP1 PUSH4 0xECEB9A9C EQ PUSH2 0x179 JUMPI DUP1 PUSH4 0xED2F8603 EQ PUSH2 0x18C JUMPI DUP1 PUSH4 0xF2FDE38B EQ PUSH2 0x195 JUMPI PUSH0 DUP1 REVERT JUMPDEST DUP1 PUSH4 0x5F951529 EQ PUSH2 0x9F JUMPI DUP1 PUSH4 0x715018A6 EQ PUSH2 0xBC JUMPI DUP1 PUSH4 0x8DA5CB5B EQ PUSH2 0xC6 JUMPI DUP1 PUSH4 0x9DCB511A EQ PUSH2 0xEA JUMPI DUP1 PUSH4 0xA7264705 EQ PUSH2 0x112 JUMPI JUMPDEST PUSH0 DUP1 REVERT JUMPDEST PUSH2 0xA7 PUSH2 0x1A8 JUMP JUMPDEST PUSH1 0x40 MLOAD SWAP1 ISZERO ISZERO DUP2 MSTORE PUSH1 0x20 ADD JUMPDEST PUSH1 0x40 MLOAD DUP1 SWAP2 SUB SWAP1 RETURN JUMPDEST PUSH2 0xC4 PUSH2 0x2F6 JUMP JUMPDEST STOP JUMPDEST PUSH0 SLOAD PUSH1 0x1 PUSH1 0x1 PUSH1 0xA0 SHL SUB AND JUMPDEST PUSH1 0x40 MLOAD PUSH1 0x1 PUSH1 0x1 PUSH1 0xA0 SHL SUB SWAP1 SWAP2 AND DUP2 MSTORE PUSH1 0x20 ADD PUSH2 0xB3 JUMP JUMPDEST PUSH2 0xD2 PUSH2 0xF8 CALLDATASIZE PUSH1 0x4 PUSH2 0x5BA JUMP JUMPDEST PUSH1 0x1 PUSH1 0x20 MSTORE PUSH0 SWAP1 DUP2 MSTORE PUSH1 0x40 SWAP1 KECCAK256 SLOAD PUSH1 0x1 PUSH1 0x1 PUSH1 0xA0 SHL SUB AND DUP2 JUMP JUMPDEST PUSH2 0xD2 PUSH32 0x0 DUP2 JUMP JUMPDEST PUSH2 0x158 PUSH2 0x147 CALLDATASIZE PUSH1 0x4 PUSH2 0x5BA JUMP JUMPDEST PUSH1 0x2 PUSH1 0x20 MSTORE PUSH0 SWAP1 DUP2 MSTORE PUSH1 0x40 SWAP1 KECCAK256 SLOAD DUP2 JUMP JUMPDEST PUSH1 0x40 MLOAD SWAP1 DUP2 MSTORE PUSH1 0x20 ADD PUSH2 0xB3 JUMP JUMPDEST PUSH2 0x158 PUSH2 0x174 CALLDATASIZE PUSH1 0x4 PUSH2 0x5BA JUMP JUMPDEST PUSH2 0x309 JUMP JUMPDEST PUSH2 0xC4 PUSH2 0x187 CALLDATASIZE PUSH1 0x4 PUSH2 0x5DA JUMP JUMPDEST PUSH2 0x473 JUMP JUMPDEST PUSH2 0x158 PUSH2 0xE10 DUP2 JUMP JUMPDEST PUSH2 0xC4 PUSH2 0x1A3 CALLDATASIZE PUSH1 0x4 PUSH2 0x5BA JUMP JUMPDEST PUSH2 0x4E2 JUMP JUMPDEST PUSH0 PUSH32 0x0 PUSH1 0x1 PUSH1 0x1 PUSH1 0xA0 SHL SUB AND ISZERO PUSH2 0x2F1 JUMPI PUSH0 DUP1 PUSH0 DUP1 PUSH0 PUSH32 0x0 PUSH1 0x1 PUSH1 0x1 PUSH1 0xA0 SHL SUB AND PUSH4 0xFEAF968C PUSH1 0x40 MLOAD DUP2 PUSH4 0xFFFFFFFF AND PUSH1 0xE0 SHL DUP2 MSTORE PUSH1 0x4 ADD PUSH1 0xA0 PUSH1 0x40 MLOAD DUP1 DUP4 SUB DUP2 DUP7 GAS STATICCALL ISZERO DUP1 ISZERO PUSH2 0x239 JUMPI RETURNDATASIZE PUSH0 DUP1 RETURNDATACOPY RETURNDATASIZE PUSH0 REVERT JUMPDEST POP POP POP POP PUSH1 0x40 MLOAD RETURNDATASIZE PUSH1 0x1F NOT PUSH1 0x1F DUP3 ADD AND DUP3 ADD DUP1 PUSH1 0x40 MSTORE POP DUP2 ADD SWAP1 PUSH2 0x25D SWAP2 SWAP1 PUSH2 0x629 JUMP JUMPDEST SWAP5 POP SWAP5 POP SWAP5 POP SWAP5 POP SWAP5 POP DUP5 PUSH1 0x1 PUSH1 0x1 PUSH1 0x50 SHL SUB AND PUSH0 EQ DUP1 PUSH2 0x27C JUMPI POP DUP2 ISZERO JUMPDEST DUP1 PUSH2 0x298 JUMPI POP DUP5 PUSH1 0x1 PUSH1 0x1 PUSH1 0x50 SHL SUB AND DUP2 PUSH1 0x1 PUSH1 0x1 PUSH1 0x50 SHL SUB AND LT JUMPDEST ISZERO PUSH2 0x2A9 JUMPI PUSH1 0x1 SWAP6 POP POP POP POP POP POP SWAP1 JUMP JUMPDEST PUSH1 0x1 DUP5 EQ DUP1 ISZERO PUSH2 0x2C0 JUMPI PUSH1 0x1 SWAP7 POP POP POP POP POP POP POP SWAP1 JUMP JUMPDEST PUSH2 0x2CD PUSH2 0xE10 PUSH1 0x1 PUSH2 0x689 JUMP JUMPDEST PUSH2 0x2D7 DUP6 TIMESTAMP PUSH2 0x6A2 JUMP JUMPDEST LT ISZERO PUSH2 0x2EA JUMPI PUSH1 0x1 SWAP7 POP POP POP POP POP POP POP SWAP1 JUMP JUMPDEST POP POP POP POP POP POP JUMPDEST POP PUSH0 SWAP1 JUMP JUMPDEST PUSH2 0x2FE PUSH2 0x524 JUMP JUMPDEST PUSH2 0x307 PUSH0 PUSH2 0x550 JUMP JUMPDEST JUMP JUMPDEST PUSH1 0x1 PUSH1 0x1 PUSH1 0xA0 SHL SUB DUP1 DUP3 AND PUSH0 SWAP1 DUP2 MSTORE PUSH1 0x1 PUSH1 0x20 MSTORE PUSH1 0x40 DUP2 KECCAK256 SLOAD SWAP1 SWAP2 AND DUP1 PUSH2 0x333 JUMPI POP PUSH1 0x64 SWAP3 SWAP2 POP POP JUMP JUMPDEST PUSH2 0x33B PUSH2 0x1A8 JUMP JUMPDEST ISZERO PUSH2 0x349 JUMPI POP PUSH1 0x64 SWAP3 SWAP2 POP POP JUMP JUMPDEST PUSH0 DUP1 PUSH0 DUP1 PUSH0 DUP6 PUSH1 0x1 PUSH1 0x1 PUSH1 0xA0 SHL SUB AND PUSH4 0xFEAF968C PUSH1 0x40 MLOAD DUP2 PUSH4 0xFFFFFFFF AND PUSH1 0xE0 SHL DUP2 MSTORE PUSH1 0x4 ADD PUSH1 0xA0 PUSH1 0x40 MLOAD DUP1 DUP4 SUB DUP2 DUP7 GAS STATICCALL ISZERO DUP1 ISZERO PUSH2 0x38A JUMPI RETURNDATASIZE PUSH0 DUP1 RETURNDATACOPY RETURNDATASIZE PUSH0 REVERT JUMPDEST POP POP POP POP PUSH1 0x40 MLOAD RETURNDATASIZE PUSH1 0x1F NOT PUSH1 0x1F DUP3 ADD AND DUP3 ADD DUP1 PUSH1 0x40 MSTORE POP DUP2 ADD SWAP1 PUSH2 0x3AE SWAP2 SWAP1 PUSH2 0x629 JUMP JUMPDEST SWAP5 POP SWAP5 POP SWAP5 POP SWAP5 POP SWAP5 POP PUSH1 0x1 DUP5 SLT DUP1 PUSH2 0x3CE JUMPI POP PUSH1 0x1 PUSH1 0x1 PUSH1 0x50 SHL SUB DUP6 AND ISZERO JUMPDEST DUP1 PUSH2 0x3D7 JUMPI POP DUP2 ISZERO JUMPDEST DUP1 PUSH2 0x3F3 JUMPI POP DUP5 PUSH1 0x1 PUSH1 0x1 PUSH1 0x50 SHL SUB AND DUP2 PUSH1 0x1 PUSH1 0x1 PUSH1 0x50 SHL SUB AND LT JUMPDEST ISZERO PUSH2 0x406 JUMPI POP PUSH1 0x5A SWAP8 SWAP7 POP POP POP POP POP POP POP JUMP JUMPDEST PUSH0 PUSH2 0x411 DUP4 TIMESTAMP PUSH2 0x6A2 JUMP JUMPDEST PUSH1 0x1 PUSH1 0x1 PUSH1 0xA0 SHL SUB DUP11 AND PUSH0 SWAP1 DUP2 MSTORE PUSH1 0x2 PUSH1 0x20 MSTORE PUSH1 0x40 SWAP1 KECCAK256 SLOAD SWAP1 SWAP2 POP ISZERO DUP1 ISZERO SWAP1 PUSH2 0x450 JUMPI POP PUSH1 0x1 PUSH1 0x1 PUSH1 0xA0 SHL SUB DUP10 AND PUSH0 SWAP1 DUP2 MSTORE PUSH1 0x2 PUSH1 0x20 MSTORE PUSH1 0x40 SWAP1 KECCAK256 SLOAD DUP2 GT JUMPDEST ISZERO PUSH2 0x464 JUMPI POP PUSH1 0x50 SWAP9 SWAP8 POP POP POP POP POP POP POP POP JUMP JUMPDEST POP PUSH1 0xA SWAP9 SWAP8 POP POP POP POP POP POP POP POP JUMP JUMPDEST PUSH2 0x47B PUSH2 0x524 JUMP JUMPDEST PUSH1 0x1 PUSH1 0x1 PUSH1 0xA0 SHL SUB DUP4 DUP2 AND PUSH0 DUP2 DUP2 MSTORE PUSH1 0x1 PUSH1 0x20 SWAP1 DUP2 MSTORE PUSH1 0x40 DUP1 DUP4 KECCAK256 DUP1 SLOAD PUSH1 0x1 PUSH1 0x1 PUSH1 0xA0 SHL SUB NOT AND SWAP6 DUP9 AND SWAP6 DUP7 OR SWAP1 SSTORE PUSH1 0x2 SWAP1 SWAP2 MSTORE DUP1 DUP3 KECCAK256 DUP6 SWAP1 SSTORE MLOAD DUP5 SWAP4 SWAP3 SWAP2 PUSH32 0x9133C44A288CF07C9E3C56B4D0CB5982200A180E0C9EA030485CA93950EF19BF SWAP2 LOG4 POP POP POP JUMP JUMPDEST PUSH2 0x4EA PUSH2 0x524 JUMP JUMPDEST PUSH1 0x1 PUSH1 0x1 PUSH1 0xA0 SHL SUB DUP2 AND PUSH2 0x518 JUMPI PUSH1 0x40 MLOAD PUSH4 0x1E4FBDF7 PUSH1 0xE0 SHL DUP2 MSTORE PUSH0 PUSH1 0x4 DUP3 ADD MSTORE PUSH1 0x24 ADD JUMPDEST PUSH1 0x40 MLOAD DUP1 SWAP2 SUB SWAP1 REVERT JUMPDEST PUSH2 0x521 DUP2 PUSH2 0x550 JUMP JUMPDEST POP JUMP JUMPDEST PUSH0 SLOAD PUSH1 0x1 PUSH1 0x1 PUSH1 0xA0 SHL SUB AND CALLER EQ PUSH2 0x307 JUMPI PUSH1 0x40 MLOAD PUSH4 0x118CDAA7 PUSH1 0xE0 SHL DUP2 MSTORE CALLER PUSH1 0x4 DUP3 ADD MSTORE PUSH1 0x24 ADD PUSH2 0x50F JUMP JUMPDEST PUSH0 DUP1 SLOAD PUSH1 0x1 PUSH1 0x1 PUSH1 0xA0 SHL SUB DUP4 DUP2 AND PUSH1 0x1 PUSH1 0x1 PUSH1 0xA0 SHL SUB NOT DUP4 AND DUP2 OR DUP5 SSTORE PUSH1 0x40 MLOAD SWAP2 SWAP1 SWAP3 AND SWAP3 DUP4 SWAP2 PUSH32 0x8BE0079C531659141344CD1FD0A4F28419497F9722A3DAAFE3B4186F6B6457E0 SWAP2 SWAP1 LOG3 POP POP JUMP JUMPDEST DUP1 CALLDATALOAD PUSH1 0x1 PUSH1 0x1 PUSH1 0xA0 SHL SUB DUP2 AND DUP2 EQ PUSH2 0x5B5 JUMPI PUSH0 DUP1 REVERT JUMPDEST SWAP2 SWAP1 POP JUMP JUMPDEST PUSH0 PUSH1 0x20 DUP3 DUP5 SUB SLT ISZERO PUSH2 0x5CA JUMPI PUSH0 DUP1 REVERT JUMPDEST PUSH2 0x5D3 DUP3 PUSH2 0x59F JUMP JUMPDEST SWAP4 SWAP3 POP POP POP JUMP JUMPDEST PUSH0 DUP1 PUSH0 PUSH1 0x60 DUP5 DUP7 SUB SLT ISZERO PUSH2 0x5EC JUMPI PUSH0 DUP1 REVERT JUMPDEST PUSH2 0x5F5 DUP5 PUSH2 0x59F JUMP JUMPDEST SWAP3 POP PUSH2 0x603 PUSH1 0x20 DUP6 ADD PUSH2 0x59F JUMP JUMPDEST SWAP2 POP PUSH1 0x40 DUP5 ADD CALLDATALOAD SWAP1 POP SWAP3 POP SWAP3 POP SWAP3 JUMP JUMPDEST DUP1 MLOAD PUSH1 0x1 PUSH1 0x1 PUSH1 0x50 SHL SUB DUP2 AND DUP2 EQ PUSH2 0x5B5 JUMPI PUSH0 DUP1 REVERT JUMPDEST PUSH0 DUP1 PUSH0 DUP1 PUSH0 PUSH1 0xA0 DUP7 DUP9 SUB SLT ISZERO PUSH2 0x63D JUMPI PUSH0 DUP1 REVERT JUMPDEST PUSH2 0x646 DUP7 PUSH2 0x613 JUMP JUMPDEST SWAP5 POP PUSH1 0x20 DUP7 ADD MLOAD SWAP4 POP PUSH1 0x40 DUP7 ADD MLOAD SWAP3 POP PUSH1 0x60 DUP7 ADD MLOAD SWAP2 POP PUSH2 0x669 PUSH1 0x80 DUP8 ADD PUSH2 0x613 JUMP JUMPDEST SWAP1 POP SWAP3 SWAP6 POP SWAP3 SWAP6 SWAP1 SWAP4 POP JUMP JUMPDEST PUSH4 0x4E487B71 PUSH1 0xE0 SHL PUSH0 MSTORE PUSH1 0x11 PUSH1 0x4 MSTORE PUSH1 0x24 PUSH0 REVERT JUMPDEST DUP1 DUP3 ADD DUP1 DUP3 GT ISZERO PUSH2 0x69C JUMPI PUSH2 0x69C PUSH2 0x675 JUMP JUMPDEST SWAP3 SWAP2 POP POP JUMP JUMPDEST DUP2 DUP2 SUB DUP2 DUP2 GT ISZERO PUSH2 0x69C JUMPI PUSH2 0x69C PUSH2 0x675 JUMP INVALID LOG2 PUSH5 0x6970667358 0x22 SLT KECCAK256 MSTORE 0x4D 0xD6 0xFC 0xC1 0xE5 0xDF 0xCE PUSH9 0xBE1170C13FB9B78DDD 0xD PUSH28 0xD58BA6968CA090CD743B30BF64736F6C634300081800330000000000 "},"methodIdentifiers":{"GRACE_PERIOD_TIME()":"ed2f8603","getRiskScore(address)":"dc08706d","heartbeat(address)":"b7a1bb15","isEmergencyActive()":"5f951529","owner()":"8da5cb5b","priceFeeds(address)":"9dcb511a","renounceOwnership()":"715018a6","sequencerUptimeFeed()":"a7264705","setPriceFeed(address,address,uint256)":"eceb9a9c","transferOwnership(address)":"f2fde38b"}}}}}