{"contracts/mocks/MockPriceFeed.sol":{"MockPriceFeed":{"abi":[{"inputs":[{"internalType":"int256","name":"_price","type":"int256"}],"stateMutability":"nonpayable","type":"constructor"},{"inputs":[],"name":"decimals","outputs":[{"internalType":"uint8","name":"","type":"uint8"}],"stateMutability":"view","type":"function"},{"inputs":[],"name":"latestRoundData","outputs":[{"internalType":"uint80","name":"roundId","type":"uint80"},{"internalType":"int256","name":"answer","type":"int256"},{"internalType":"uint256","name":"startedAt","type":"uint256"},{"internalType":"uint256","name":"updatedAt_","type":"uint256"},{"internalType":"uint80","name":"answeredInRound","type":"uint80"}],"stateMutability":"view","type":"function"},{"inputs":[],"name":"price","outputs":[{"internalType":"int256","name":"","type":"int256"}],"stateMutability":"view","type":"function"},{"inputs":[{"internalType":"int256","name":"_price","type":"int256"}],"name":"setPrice","outputs":[],"stateMutability":"nonpayable","type":"function"},{"inputs":[],"name":"updatedAt","outputs":[{"internalType":"uint256","name":"","type":"uint256"}],"stateMutability":"view","type":"function"}],"evm":{"bytecode":{"linkReferences":{},"object":"60806040526002805460ff1916600817905534801561001c575f80fd5b5060405161018738038061018783398101604081905261003b91610046565b5f554260015561005d565b5f60208284031215610056575f80fd5b5051919050565b61011d8061006a5f395ff3fe6080604052348015600e575f80fd5b5060043610604e575f3560e01c8063313ce5671460525780637519ab50146075578063a035b1fe14608a578063f7a30806146091578063feaf968c1460a6575b5f80fd5b600254605e9060ff1681565b60405160ff90911681526020015b60405180910390f35b607d60015481565b604051908152602001606c565b607d5f5481565b60a4609c36600460d1565b5f5542600155565b005b5f546001805460408051838152602081019490945283018190526060830152608082015260a001606c565b5f6020828403121560e0575f80fd5b503591905056fea2646970667358221220210fd8173812aae375312a9e2d3e676dd23d02c286c0392c94413f12946c090c64736f6c63430008180033","opcodes":"PUSH1 0x80 PUSH1 0x40 MSTORE PUSH1 0x2 DUP1 SLOAD PUSH1 0xFF NOT AND PUSH1 0x8 OR SWAP1 SSTORE CALLVALUE DUP1 ISZERO PUSH2 0x1C JUMPI PUSH0 DUP1 REVERT JUMPDEST POP PUSH1 0x40 MLOAD PUSH2 0x187 CODESIZE SUB DUP1 PUSH2 0x187 DUP4 CODECOPY DUP2 ADD PUSH1 0x40 DUP2 SWAP1 MSTORE PUSH2 0x3B SWAP2 PUSH2 0x46 JUMP JUMPDEST PUSH0 SSTORE TIMESTAMP PUSH1 0x1 SSTORE PUSH2 0x5D JUMP JUMPDEST PUSH0 PUSH1 0x20 DUP3 DUP5 SUB SLT ISZERO PUSH2 0x56 JUMPI PUSH0 DUP1 REVERT JUMPDEST POP MLOAD SWAP2 SWAP1 POP JUMP JUMPDEST PUSH2 0x11D DUP1 PUSH2 0x6A PUSH0 CODECOPY PUSH0 RETURN INVALID PUSH1 0x80 PUSH1 0x40 MSTORE CALLVALUE DUP1 ISZERO PUSH1 0xE JUMPI PUSH0 DUP1 REVERT JUMPDEST POP PUSH1 0x4 CALLDATASIZE LT PUSH1 0x4E JUMPI PUSH0 CALLDATALOAD PUSH1 0xE0 SHR DUP1 PUSH4 0x313CE567 EQ PUSH1 0x52 JUMPI DUP1 PUSH4 0x7519AB50 EQ PUSH1 0x75 JUMPI DUP1 PUSH4 0xA035B1FE EQ PUSH1 0x8A JUMPI DUP1 PUSH4 0xF7A30806 EQ PUSH1 0x91 JUMPI DUP1 PUSH4 0xFEAF968C EQ PUSH1 0xA6 JUMPI JUMPDEST PUSH0 DUP1 REVERT JUMPDEST PUSH1 0x2 SLOAD PUSH1 0x5E SWAP1 PUSH1 0xFF AND DUP2 JUMP JUMPDEST PUSH1 0x40 MLOAD PUSH1 0xFF SWAP1 SWAP2 AND DUP2 MSTORE PUSH1 0x20 ADD JUMPDEST PUSH1 0x40 MLOAD DUP1 SWAP2 SUB SWAP1 RETURN JUMPDEST PUSH1 0x7D PUSH1 0x1 SLOAD DUP2 JUMP JUMPDEST PUSH1 0x40 MLOAD SWAP1 DUP2 MSTORE PUSH1 0x20 ADD PUSH1 0x6C JUMP JUMPDEST PUSH1 0x7D PUSH0 SLOAD DUP2 JUMP JUMPDEST PUSH1 0xA4 PUSH1 0x9C CALLDATASIZE PUSH1 0x4 PUSH1 0xD1 JUMP JUMPDEST PUSH0 SSTORE TIMESTAMP PUSH1 0x1 SSTORE JUMP JUMPDEST STOP JUMPDEST PUSH0 SLOAD PUSH1 0x1 DUP1 SLOAD PUSH1 0x40 DUP1 MLOAD DUP4 DUP2 MSTORE PUSH1 0x20 DUP2 ADD SWAP5 SWAP1 SWAP5 MSTORE DUP4 ADD DUP2 SWAP1 MSTORE PUSH1 0x60 DUP4 ADD MSTORE PUSH1 0x80 DUP3 ADD MSTORE PUSH1 0xA0 ADD PUSH1 0x6C JUMP JUMPDEST PUSH0 PUSH1 0x20 DUP3 DUP5 SUB SLT ISZERO PUSH1 0xE0 JUMPI PUSH0 DUP1 REVERT JUMPDEST POP CALLDATALOAD SWAP2 SWAP1 POP JUMP INVALID LOG2 PUSH5 0x6970667358 0x22 SLT KECCAK256 0x21 0xF 0xD8 OR CODESIZE SLT 0xAA 0xE3 PUSH22 0x312A9E2D3E676DD23D02C286C0392C94413F12946C09 0xC PUSH5 0x736F6C6343 STOP ADDMOD XOR STOP CALLER "},"methodIdentifiers":{"decimals()":"313ce567","latestRoundData()":"feaf968c","price()":"a035b1fe","setPrice(int256)":"f7a30806","updatedAt()":"7519ab50"}}}}}