{
  "_format": "hh-sol-artifact-1",
  "contractName": "MockAavePool",
  "sourceName": "contracts/mocks/MockAavePool.sol",
  "abi": [
    {
      "inputs": [
        {
          "internalType": "address",
          "name": "token",
          "type": "address"
        }
      ],
      "name": "SafeERC20FailedOperation",
      "type": "error"
    },
    {
      "inputs": [
        {
          "internalType": "address",
          "name": "asset",
          "type": "address"
        },
        {
          "internalType": "uint256",
          "name": "amount",
          "type": "uint256"
        },
        {
          "internalType": "address",
          "name": "",
          "type": "address"
        },
        {
          "internalType": "uint16",
          "name": "",
          "type": "uint16"
        }
      ],
      "name": "supply",
      "outputs": [],
      "stateMutability": "nonpayable",
      "type": "function"
    },
    {
      "inputs": [
        {
          "internalType": "address",
          "name": "asset",
          "type": "address"
        },
        {
          "internalType": "uint256",
          "name": "amount",
          "type": "uint256"
        },
        {
          "internalType": "address",
          "name": "to",
          "type": "address"
        }
      ],
      "name": "withdraw",
      "outputs": [
        {
          "internalType": "uint256",
          "name": "",
          "type": "uint256"
        }
      ],
      "stateMutability": "nonpayable",
      "type": "function"
    }
  ],
  "bytecode": "0x608060405234801561000f575f80fd5b5061035f8061001d5f395ff3fe608060405234801561000f575f80fd5b5060043610610034575f3560e01c8063617ba0371461003857806369328dec1461004d575b5f80fd5b61004b610046366004610287565b610072565b005b61006061005b3660046102d9565b61008d565b60405190815260200160405180910390f35b6100876001600160a01b038516333086610128565b50505050565b6040516370a0823160e01b81523060048201525f9081906001600160a01b038616906370a0823190602401602060405180830381865afa1580156100d3573d5f803e3d5ffd5b505050506040513d601f19601f820116820180604052508101906100f79190610312565b90505f8185116101075784610109565b815b905061011f6001600160a01b0387168583610163565b95945050505050565b61013684848484600161019d565b61008757604051635274afe760e01b81526001600160a01b03851660048201526024015b60405180910390fd5b610170838383600161020a565b61019857604051635274afe760e01b81526001600160a01b038416600482015260240161015a565b505050565b6040516323b872dd60e01b5f8181526001600160a01b038781166004528616602452604485905291602083606481808c5af1925060015f511483166101f95783831516156101ed573d5f823e3d81fd5b5f883b113d1516831692505b604052505f60605295945050505050565b60405163a9059cbb60e01b5f8181526001600160a01b038616600452602485905291602083604481808b5af1925060015f51148316610260578383151615610254573d5f823e3d81fd5b5f873b113d1516831692505b60405250949350505050565b80356001600160a01b0381168114610282575f80fd5b919050565b5f805f806080858703121561029a575f80fd5b6102a38561026c565b9350602085013592506102b86040860161026c565b9150606085013561ffff811681146102ce575f80fd5b939692955090935050565b5f805f606084860312156102eb575f80fd5b6102f48461026c565b9250602084013591506103096040850161026c565b90509250925092565b5f60208284031215610322575f80fd5b505191905056fea264697066735822122004ba25cc081522e228be9152e64fb23f83ca55ee444e26ea5f212d4a5b0598be64736f6c63430008180033",
  "linkReferences": {},
  "deployedLinkReferences": {}
}