{
  "_format": "hh-sol-artifact-1",
  "contractName": "BalancerV2Adapter",
  "sourceName": "contracts/adapters/BalancerV2Adapter.sol",
  "abi": [
    {
      "inputs": [
        {
          "internalType": "address",
          "name": "_balancerVault",
          "type": "address"
        },
        {
          "internalType": "address",
          "name": "_admin",
          "type": "address"
        }
      ],
      "stateMutability": "nonpayable",
      "type": "constructor"
    },
    {
      "inputs": [],
      "name": "AccessControlBadConfirmation",
      "type": "error"
    },
    {
      "inputs": [
        {
          "internalType": "address",
          "name": "account",
          "type": "address"
        },
        {
          "internalType": "bytes32",
          "name": "neededRole",
          "type": "bytes32"
        }
      ],
      "name": "AccessControlUnauthorizedAccount",
      "type": "error"
    },
    {
      "inputs": [
        {
          "internalType": "address",
          "name": "token",
          "type": "address"
        }
      ],
      "name": "SafeERC20FailedOperation",
      "type": "error"
    },
    {
      "anonymous": false,
      "inputs": [
        {
          "indexed": true,
          "internalType": "bytes32",
          "name": "role",
          "type": "bytes32"
        },
        {
          "indexed": true,
          "internalType": "bytes32",
          "name": "previousAdminRole",
          "type": "bytes32"
        },
        {
          "indexed": true,
          "internalType": "bytes32",
          "name": "newAdminRole",
          "type": "bytes32"
        }
      ],
      "name": "RoleAdminChanged",
      "type": "event"
    },
    {
      "anonymous": false,
      "inputs": [
        {
          "indexed": true,
          "internalType": "bytes32",
          "name": "role",
          "type": "bytes32"
        },
        {
          "indexed": true,
          "internalType": "address",
          "name": "account",
          "type": "address"
        },
        {
          "indexed": true,
          "internalType": "address",
          "name": "sender",
          "type": "address"
        }
      ],
      "name": "RoleGranted",
      "type": "event"
    },
    {
      "anonymous": false,
      "inputs": [
        {
          "indexed": true,
          "internalType": "bytes32",
          "name": "role",
          "type": "bytes32"
        },
        {
          "indexed": true,
          "internalType": "address",
          "name": "account",
          "type": "address"
        },
        {
          "indexed": true,
          "internalType": "address",
          "name": "sender",
          "type": "address"
        }
      ],
      "name": "RoleRevoked",
      "type": "event"
    },
    {
      "inputs": [],
      "name": "BALANCER_VAULT",
      "outputs": [
        {
          "internalType": "contract IBalancerVault",
          "name": "",
          "type": "address"
        }
      ],
      "stateMutability": "view",
      "type": "function"
    },
    {
      "inputs": [],
      "name": "DEFAULT_ADMIN_ROLE",
      "outputs": [
        {
          "internalType": "bytes32",
          "name": "",
          "type": "bytes32"
        }
      ],
      "stateMutability": "view",
      "type": "function"
    },
    {
      "inputs": [],
      "name": "VAULT_ROLE",
      "outputs": [
        {
          "internalType": "bytes32",
          "name": "",
          "type": "bytes32"
        }
      ],
      "stateMutability": "view",
      "type": "function"
    },
    {
      "inputs": [
        {
          "internalType": "address",
          "name": "",
          "type": "address"
        }
      ],
      "name": "assetToPoolId",
      "outputs": [
        {
          "internalType": "bytes32",
          "name": "",
          "type": "bytes32"
        }
      ],
      "stateMutability": "view",
      "type": "function"
    },
    {
      "inputs": [
        {
          "internalType": "address",
          "name": "",
          "type": "address"
        },
        {
          "internalType": "address",
          "name": "asset",
          "type": "address"
        },
        {
          "internalType": "uint256",
          "name": "amount",
          "type": "uint256"
        }
      ],
      "name": "deposit",
      "outputs": [
        {
          "internalType": "uint256",
          "name": "",
          "type": "uint256"
        }
      ],
      "stateMutability": "nonpayable",
      "type": "function"
    },
    {
      "inputs": [
        {
          "internalType": "address",
          "name": "vault",
          "type": "address"
        },
        {
          "internalType": "address",
          "name": "asset",
          "type": "address"
        },
        {
          "internalType": "address",
          "name": "to",
          "type": "address"
        }
      ],
      "name": "emergencyWithdraw",
      "outputs": [],
      "stateMutability": "nonpayable",
      "type": "function"
    },
    {
      "inputs": [
        {
          "internalType": "address",
          "name": "vault",
          "type": "address"
        },
        {
          "internalType": "address",
          "name": "asset",
          "type": "address"
        }
      ],
      "name": "getBalance",
      "outputs": [
        {
          "internalType": "uint256",
          "name": "",
          "type": "uint256"
        }
      ],
      "stateMutability": "view",
      "type": "function"
    },
    {
      "inputs": [
        {
          "internalType": "bytes32",
          "name": "role",
          "type": "bytes32"
        }
      ],
      "name": "getRoleAdmin",
      "outputs": [
        {
          "internalType": "bytes32",
          "name": "",
          "type": "bytes32"
        }
      ],
      "stateMutability": "view",
      "type": "function"
    },
    {
      "inputs": [
        {
          "internalType": "bytes32",
          "name": "role",
          "type": "bytes32"
        },
        {
          "internalType": "address",
          "name": "account",
          "type": "address"
        }
      ],
      "name": "grantRole",
      "outputs": [],
      "stateMutability": "nonpayable",
      "type": "function"
    },
    {
      "inputs": [
        {
          "internalType": "bytes32",
          "name": "role",
          "type": "bytes32"
        },
        {
          "internalType": "address",
          "name": "account",
          "type": "address"
        }
      ],
      "name": "hasRole",
      "outputs": [
        {
          "internalType": "bool",
          "name": "",
          "type": "bool"
        }
      ],
      "stateMutability": "view",
      "type": "function"
    },
    {
      "inputs": [
        {
          "internalType": "bytes32",
          "name": "role",
          "type": "bytes32"
        },
        {
          "internalType": "address",
          "name": "callerConfirmation",
          "type": "address"
        }
      ],
      "name": "renounceRole",
      "outputs": [],
      "stateMutability": "nonpayable",
      "type": "function"
    },
    {
      "inputs": [
        {
          "internalType": "bytes32",
          "name": "role",
          "type": "bytes32"
        },
        {
          "internalType": "address",
          "name": "account",
          "type": "address"
        }
      ],
      "name": "revokeRole",
      "outputs": [],
      "stateMutability": "nonpayable",
      "type": "function"
    },
    {
      "inputs": [
        {
          "internalType": "address",
          "name": "asset",
          "type": "address"
        },
        {
          "internalType": "bytes32",
          "name": "poolId",
          "type": "bytes32"
        }
      ],
      "name": "setPoolId",
      "outputs": [],
      "stateMutability": "nonpayable",
      "type": "function"
    },
    {
      "inputs": [
        {
          "internalType": "bytes4",
          "name": "interfaceId",
          "type": "bytes4"
        }
      ],
      "name": "supportsInterface",
      "outputs": [
        {
          "internalType": "bool",
          "name": "",
          "type": "bool"
        }
      ],
      "stateMutability": "view",
      "type": "function"
    },
    {
      "inputs": [
        {
          "internalType": "address",
          "name": "vault",
          "type": "address"
        },
        {
          "internalType": "address",
          "name": "asset",
          "type": "address"
        },
        {
          "internalType": "uint256",
          "name": "amount",
          "type": "uint256"
        },
        {
          "internalType": "address",
          "name": "to",
          "type": "address"
        }
      ],
      "name": "withdraw",
      "outputs": [
        {
          "internalType": "uint256",
          "name": "",
          "type": "uint256"
        }
      ],
      "stateMutability": "nonpayable",
      "type": "function"
    }
  ],
  "bytecode": "0x60a060405234801561000f575f80fd5b50604051610aef380380610aef83398101604081905261002e91610111565b6001600160a01b0382166080526100455f8261004d565b505050610142565b5f828152602081815260408083206001600160a01b038516845290915281205460ff166100ed575f838152602081815260408083206001600160a01b03861684529091529020805460ff191660011790556100a53390565b6001600160a01b0316826001600160a01b0316847f2f8788117e7eff1d82e926ec794901d17c78024a50270940304540a733656f0d60405160405180910390a45060016100f0565b505f5b92915050565b80516001600160a01b038116811461010c575f80fd5b919050565b5f8060408385031215610122575f80fd5b61012b836100f6565b9150610139602084016100f6565b90509250929050565b60805161099561015a5f395f61021101526109955ff3fe608060405234801561000f575f80fd5b50600436106100ef575f3560e01c80638340f54911610093578063a217fddf11610063578063a217fddf14610205578063bc1638461461020c578063d4fac45d1461024b578063d547741f1461025e575f80fd5b80638340f549146101b857806391d14854146101cb57806398c4f1ac146101de5780639cbaa202146101f2575f80fd5b8063248a9ca3116100ce578063248a9ca31461015b5780632f2ff15d1461017d57806336568abe146101925780636173514d146101a5575f80fd5b80622d3a08146100f357806301ffc9a7146101255780630e917f7614610148575b5f80fd5b610112610101366004610794565b60016020525f908152604090205481565b6040519081526020015b60405180910390f35b6101386101333660046107ad565b610271565b604051901515815260200161011c565b6101126101563660046107d4565b6102a7565b61011261016936600461081e565b5f9081526020819052604090206001015490565b61019061018b366004610835565b6102dd565b005b6101906101a0366004610835565b610307565b6101906101b336600461085f565b61033f565b6101126101c636600461089f565b6103e1565b6101386101d9366004610835565b610417565b6101125f8051602061094083398151915281565b6101906102003660046108d8565b61043f565b6101125f81565b6102337f000000000000000000000000000000000000000000000000000000000000000081565b6040516001600160a01b03909116815260200161011c565b610112610259366004610900565b610465565b61019061026c366004610835565b6104d4565b5f6001600160e01b03198216637965db0b60e01b14806102a157506301ffc9a760e01b6001600160e01b03198316145b92915050565b5f5f805160206109408339815191526102bf816104f8565b6102d36001600160a01b0386168486610505565b5091949350505050565b5f828152602081905260409020600101546102f7816104f8565b610301838361053f565b50505050565b6001600160a01b03811633146103305760405163334bd91960e11b815260040160405180910390fd5b61033a82826105ce565b505050565b5f80516020610940833981519152610356816104f8565b6040516370a0823160e01b81523060048201525f906001600160a01b038516906370a0823190602401602060405180830381865afa15801561039a573d5f803e3d5ffd5b505050506040513d601f19601f820116820180604052508101906103be9190610928565b905080156103da576103da6001600160a01b0385168483610505565b5050505050565b5f5f805160206109408339815191526103f9816104f8565b61040e6001600160a01b038516333086610637565b50909392505050565b5f918252602082815260408084206001600160a01b0393909316845291905290205460ff1690565b5f610449816104f8565b506001600160a01b039091165f90815260016020526040902055565b6040516370a0823160e01b81523060048201525f906001600160a01b038316906370a0823190602401602060405180830381865afa1580156104a9573d5f803e3d5ffd5b505050506040513d601f19601f820116820180604052508101906104cd9190610928565b9392505050565b5f828152602081905260409020600101546104ee816104f8565b61030183836105ce565b610502813361066d565b50565b61051283838360016106aa565b61033a57604051635274afe760e01b81526001600160a01b03841660048201526024015b60405180910390fd5b5f61054a8383610417565b6105c7575f838152602081815260408083206001600160a01b03861684529091529020805460ff1916600117905561057f3390565b6001600160a01b0316826001600160a01b0316847f2f8788117e7eff1d82e926ec794901d17c78024a50270940304540a733656f0d60405160405180910390a45060016102a1565b505f6102a1565b5f6105d98383610417565b156105c7575f838152602081815260408083206001600160a01b0386168085529252808320805460ff1916905551339286917ff6391f5c32d9c69d2a47ea670b442974b53935d1edc7fd64eb21e047a839171b9190a45060016102a1565b61064584848484600161070c565b61030157604051635274afe760e01b81526001600160a01b0385166004820152602401610536565b6106778282610417565b6106a65760405163e2517d3f60e01b81526001600160a01b038216600482015260248101839052604401610536565b5050565b60405163a9059cbb60e01b5f8181526001600160a01b038616600452602485905291602083604481808b5af1925060015f511483166107005783831516156106f4573d5f823e3d81fd5b5f873b113d1516831692505b60405250949350505050565b6040516323b872dd60e01b5f8181526001600160a01b038781166004528616602452604485905291602083606481808c5af1925060015f5114831661076857838315161561075c573d5f823e3d81fd5b5f883b113d1516831692505b604052505f60605295945050505050565b80356001600160a01b038116811461078f575f80fd5b919050565b5f602082840312156107a4575f80fd5b6104cd82610779565b5f602082840312156107bd575f80fd5b81356001600160e01b0319811681146104cd575f80fd5b5f805f80608085870312156107e7575f80fd5b6107f085610779565b93506107fe60208601610779565b92506040850135915061081360608601610779565b905092959194509250565b5f6020828403121561082e575f80fd5b5035919050565b5f8060408385031215610846575f80fd5b8235915061085660208401610779565b90509250929050565b5f805f60608486031215610871575f80fd5b61087a84610779565b925061088860208501610779565b915061089660408501610779565b90509250925092565b5f805f606084860312156108b1575f80fd5b6108ba84610779565b92506108c860208501610779565b9150604084013590509250925092565b5f80604083850312156108e9575f80fd5b6108f283610779565b946020939093013593505050565b5f8060408385031215610911575f80fd5b61091a83610779565b915061085660208401610779565b5f60208284031215610938575f80fd5b505191905056fe31e0210044b4f6757ce6aa31f9c6e8d4896d24a755014887391a926c5224d959a264697066735822122037d9fadbb2878ea8199aa9a89794b1290d5f7126f73af4a58446152a7c4585df64736f6c63430008180033",
  "linkReferences": {},
  "deployedLinkReferences": {}
}