{
  "_format": "hh-sol-artifact-1",
  "contractName": "MaliciousToken",
  "sourceName": "contracts/mocks/MaliciousToken.sol",
  "abi": [
    {
      "inputs": [],
      "stateMutability": "payable",
      "type": "constructor"
    },
    {
      "inputs": [
        {
          "internalType": "address",
          "name": "spender",
          "type": "address"
        },
        {
          "internalType": "uint256",
          "name": "allowance",
          "type": "uint256"
        },
        {
          "internalType": "uint256",
          "name": "needed",
          "type": "uint256"
        }
      ],
      "name": "ERC20InsufficientAllowance",
      "type": "error"
    },
    {
      "inputs": [
        {
          "internalType": "address",
          "name": "sender",
          "type": "address"
        },
        {
          "internalType": "uint256",
          "name": "balance",
          "type": "uint256"
        },
        {
          "internalType": "uint256",
          "name": "needed",
          "type": "uint256"
        }
      ],
      "name": "ERC20InsufficientBalance",
      "type": "error"
    },
    {
      "inputs": [
        {
          "internalType": "address",
          "name": "approver",
          "type": "address"
        }
      ],
      "name": "ERC20InvalidApprover",
      "type": "error"
    },
    {
      "inputs": [
        {
          "internalType": "address",
          "name": "receiver",
          "type": "address"
        }
      ],
      "name": "ERC20InvalidReceiver",
      "type": "error"
    },
    {
      "inputs": [
        {
          "internalType": "address",
          "name": "sender",
          "type": "address"
        }
      ],
      "name": "ERC20InvalidSender",
      "type": "error"
    },
    {
      "inputs": [
        {
          "internalType": "address",
          "name": "spender",
          "type": "address"
        }
      ],
      "name": "ERC20InvalidSpender",
      "type": "error"
    },
    {
      "anonymous": false,
      "inputs": [
        {
          "indexed": true,
          "internalType": "address",
          "name": "owner",
          "type": "address"
        },
        {
          "indexed": true,
          "internalType": "address",
          "name": "spender",
          "type": "address"
        },
        {
          "indexed": false,
          "internalType": "uint256",
          "name": "value",
          "type": "uint256"
        }
      ],
      "name": "Approval",
      "type": "event"
    },
    {
      "anonymous": false,
      "inputs": [
        {
          "indexed": true,
          "internalType": "address",
          "name": "from",
          "type": "address"
        },
        {
          "indexed": true,
          "internalType": "address",
          "name": "to",
          "type": "address"
        },
        {
          "indexed": false,
          "internalType": "uint256",
          "name": "value",
          "type": "uint256"
        }
      ],
      "name": "Transfer",
      "type": "event"
    },
    {
      "inputs": [
        {
          "internalType": "address",
          "name": "owner",
          "type": "address"
        },
        {
          "internalType": "address",
          "name": "spender",
          "type": "address"
        }
      ],
      "name": "allowance",
      "outputs": [
        {
          "internalType": "uint256",
          "name": "",
          "type": "uint256"
        }
      ],
      "stateMutability": "view",
      "type": "function"
    },
    {
      "inputs": [
        {
          "internalType": "address",
          "name": "spender",
          "type": "address"
        },
        {
          "internalType": "uint256",
          "name": "value",
          "type": "uint256"
        }
      ],
      "name": "approve",
      "outputs": [
        {
          "internalType": "bool",
          "name": "",
          "type": "bool"
        }
      ],
      "stateMutability": "nonpayable",
      "type": "function"
    },
    {
      "inputs": [
        {
          "internalType": "address",
          "name": "account",
          "type": "address"
        }
      ],
      "name": "balanceOf",
      "outputs": [
        {
          "internalType": "uint256",
          "name": "",
          "type": "uint256"
        }
      ],
      "stateMutability": "view",
      "type": "function"
    },
    {
      "inputs": [],
      "name": "decimals",
      "outputs": [
        {
          "internalType": "uint8",
          "name": "",
          "type": "uint8"
        }
      ],
      "stateMutability": "view",
      "type": "function"
    },
    {
      "inputs": [],
      "name": "isAttacking",
      "outputs": [
        {
          "internalType": "bool",
          "name": "",
          "type": "bool"
        }
      ],
      "stateMutability": "view",
      "type": "function"
    },
    {
      "inputs": [
        {
          "internalType": "address",
          "name": "account",
          "type": "address"
        },
        {
          "internalType": "uint256",
          "name": "amount",
          "type": "uint256"
        }
      ],
      "name": "mint",
      "outputs": [],
      "stateMutability": "nonpayable",
      "type": "function"
    },
    {
      "inputs": [],
      "name": "name",
      "outputs": [
        {
          "internalType": "string",
          "name": "",
          "type": "string"
        }
      ],
      "stateMutability": "view",
      "type": "function"
    },
    {
      "inputs": [
        {
          "internalType": "address",
          "name": "_vault",
          "type": "address"
        }
      ],
      "name": "setVault",
      "outputs": [],
      "stateMutability": "nonpayable",
      "type": "function"
    },
    {
      "inputs": [],
      "name": "startAttack",
      "outputs": [],
      "stateMutability": "nonpayable",
      "type": "function"
    },
    {
      "inputs": [],
      "name": "stopAttack",
      "outputs": [],
      "stateMutability": "nonpayable",
      "type": "function"
    },
    {
      "inputs": [],
      "name": "symbol",
      "outputs": [
        {
          "internalType": "string",
          "name": "",
          "type": "string"
        }
      ],
      "stateMutability": "view",
      "type": "function"
    },
    {
      "inputs": [],
      "name": "totalSupply",
      "outputs": [
        {
          "internalType": "uint256",
          "name": "",
          "type": "uint256"
        }
      ],
      "stateMutability": "view",
      "type": "function"
    },
    {
      "inputs": [
        {
          "internalType": "address",
          "name": "to",
          "type": "address"
        },
        {
          "internalType": "uint256",
          "name": "value",
          "type": "uint256"
        }
      ],
      "name": "transfer",
      "outputs": [
        {
          "internalType": "bool",
          "name": "",
          "type": "bool"
        }
      ],
      "stateMutability": "nonpayable",
      "type": "function"
    },
    {
      "inputs": [
        {
          "internalType": "address",
          "name": "from",
          "type": "address"
        },
        {
          "internalType": "address",
          "name": "to",
          "type": "address"
        },
        {
          "internalType": "uint256",
          "name": "amount",
          "type": "uint256"
        }
      ],
      "name": "transferFrom",
      "outputs": [
        {
          "internalType": "bool",
          "name": "",
          "type": "bool"
        }
      ],
      "stateMutability": "nonpayable",
      "type": "function"
    },
    {
      "inputs": [],
      "name": "vault",
      "outputs": [
        {
          "internalType": "contract IVault",
          "name": "",
          "type": "address"
        }
      ],
      "stateMutability": "view",
      "type": "function"
    }
  ],
  "bytecode": "0x600f60809081526e26b0b634b1b4b7bab9902a37b5b2b760891b60a052610100604052600360c08181526213505360ea1b60e0529062000040838262000281565b5060046200004f828262000281565b5050506200006e3369d3c21bcecceda10000006200007460201b60201c565b62000373565b6001600160a01b038216620000a35760405163ec442f0560e01b81525f60048201526024015b60405180910390fd5b620000b05f8383620000b4565b5050565b6001600160a01b038316620000e2578060025f828254620000d691906200034d565b90915550620001549050565b6001600160a01b0383165f9081526020819052604090205481811015620001365760405163391434e360e21b81526001600160a01b038516600482015260248101829052604481018390526064016200009a565b6001600160a01b0384165f9081526020819052604090209082900390555b6001600160a01b038216620001725760028054829003905562000190565b6001600160a01b0382165f9081526020819052604090208054820190555b816001600160a01b0316836001600160a01b03167fddf252ad1be2c89b69c2b068fc378daa952ba7f163c4a11628f55a4df523b3ef83604051620001d691815260200190565b60405180910390a3505050565b634e487b7160e01b5f52604160045260245ffd5b600181811c908216806200020c57607f821691505b6020821081036200022b57634e487b7160e01b5f52602260045260245ffd5b50919050565b601f8211156200027c57805f5260205f20601f840160051c81016020851015620002585750805b601f840160051c820191505b8181101562000279575f815560010162000264565b50505b505050565b81516001600160401b038111156200029d576200029d620001e3565b620002b581620002ae8454620001f7565b8462000231565b602080601f831160018114620002eb575f8415620002d35750858301515b5f19600386901b1c1916600185901b17855562000345565b5f85815260208120601f198616915b828110156200031b57888601518255948401946001909101908401620002fa565b50858210156200033957878501515f19600388901b60f8161c191681555b505060018460011b0185555b505050505050565b808201808211156200036d57634e487b7160e01b5f52601160045260245ffd5b92915050565b61091c80620003815f395ff3fe608060405234801561000f575f80fd5b50600436106100f0575f3560e01c806370a0823111610093578063a3844f0611610063578063a3844f061461020a578063a9059cbb1461021c578063dd62ed3e1461022f578063fbfa77cf14610267575f80fd5b806370a08231146101ae57806377c00de0146101d657806395d89b41146101ee5780639a422b29146101f6575f80fd5b806323b872dd116100ce57806323b872dd14610147578063313ce5671461015a57806340c10f19146101695780636817031b1461017e575f80fd5b806306fdde03146100f4578063095ea7b31461011257806318160ddd14610135575b5f80fd5b6100fc610292565b604051610109919061075f565b60405180910390f35b6101256101203660046107c6565b610322565b6040519015158152602001610109565b6002545b604051908152602001610109565b6101256101553660046107ee565b61033b565b60405160128152602001610109565b61017c6101773660046107c6565b6103fb565b005b61017c61018c366004610827565b600580546001600160a01b0319166001600160a01b0392909216919091179055565b6101396101bc366004610827565b6001600160a01b03165f9081526020819052604090205490565b61017c6005805460ff60a01b1916600160a01b179055565b6100fc610409565b60055461012590600160a01b900460ff1681565b61017c6005805460ff60a01b19169055565b61012561022a3660046107c6565b610418565b61013961023d366004610847565b6001600160a01b039182165f90815260016020908152604080832093909416825291909152205490565b60055461027a906001600160a01b031681565b6040516001600160a01b039091168152602001610109565b6060600380546102a190610878565b80601f01602080910402602001604051908101604052809291908181526020018280546102cd90610878565b80156103185780601f106102ef57610100808354040283529160200191610318565b820191905f5260205f20905b8154815290600101906020018083116102fb57829003601f168201915b5050505050905090565b5f3361032f818585610425565b60019150505b92915050565b5f80610348858585610437565b600554909150600160a01b900460ff16801561036e57506005546001600160a01b031615155b156103f3576005805460ff60a01b198116909155604051636e553f6560e01b8152600481018590523360248201526001600160a01b0390911690636e553f65906044016020604051808303815f875af11580156103cd573d5f803e3d5ffd5b505050506040513d601f19601f820116820180604052508101906103f191906108b0565b505b949350505050565b610405828261045a565b5050565b6060600480546102a190610878565b5f3361032f818585610493565b61043283838360016104f0565b505050565b5f336104448582856105c3565b61044f858585610493565b506001949350505050565b6001600160a01b0382166104885760405163ec442f0560e01b81525f60048201526024015b60405180910390fd5b6104055f8383610639565b6001600160a01b0383166104bc57604051634b637e8f60e11b81525f600482015260240161047f565b6001600160a01b0382166104e55760405163ec442f0560e01b81525f600482015260240161047f565b610432838383610639565b6001600160a01b0384166105195760405163e602df0560e01b81525f600482015260240161047f565b6001600160a01b03831661054257604051634a1406b160e11b81525f600482015260240161047f565b6001600160a01b038085165f90815260016020908152604080832093871683529290522082905580156105bd57826001600160a01b0316846001600160a01b03167f8c5be1e5ebec7d5bd14f71427d1e84f3dd0314c0f7b2291e5b200ac8c7c3b925846040516105b491815260200190565b60405180910390a35b50505050565b6001600160a01b038381165f908152600160209081526040808320938616835292905220545f198110156105bd578181101561062b57604051637dc7a0d960e11b81526001600160a01b0384166004820152602481018290526044810183905260640161047f565b6105bd84848484035f6104f0565b6001600160a01b038316610663578060025f82825461065891906108c7565b909155506106d39050565b6001600160a01b0383165f90815260208190526040902054818110156106b55760405163391434e360e21b81526001600160a01b0385166004820152602481018290526044810183905260640161047f565b6001600160a01b0384165f9081526020819052604090209082900390555b6001600160a01b0382166106ef5760028054829003905561070d565b6001600160a01b0382165f9081526020819052604090208054820190555b816001600160a01b0316836001600160a01b03167fddf252ad1be2c89b69c2b068fc378daa952ba7f163c4a11628f55a4df523b3ef8360405161075291815260200190565b60405180910390a3505050565b5f602080835283518060208501525f5b8181101561078b5785810183015185820160400152820161076f565b505f604082860101526040601f19601f8301168501019250505092915050565b80356001600160a01b03811681146107c1575f80fd5b919050565b5f80604083850312156107d7575f80fd5b6107e0836107ab565b946020939093013593505050565b5f805f60608486031215610800575f80fd5b610809846107ab565b9250610817602085016107ab565b9150604084013590509250925092565b5f60208284031215610837575f80fd5b610840826107ab565b9392505050565b5f8060408385031215610858575f80fd5b610861836107ab565b915061086f602084016107ab565b90509250929050565b600181811c9082168061088c57607f821691505b6020821081036108aa57634e487b7160e01b5f52602260045260245ffd5b50919050565b5f602082840312156108c0575f80fd5b5051919050565b8082018082111561033557634e487b7160e01b5f52601160045260245ffdfea264697066735822122034c64f07c9761a66a8693217d7a95e78801aeefb569615702898ec06e2eac52364736f6c63430008180033",
  "linkReferences": {},
  "deployedLinkReferences": {}
}