{
  "_format": "hh-sol-artifact-1",
  "contractName": "QuickswapV3Adapter",
  "sourceName": "contracts/adapters/QuickswapV3Adapter.sol",
  "abi": [
    {
      "inputs": [
        {
          "internalType": "address",
          "name": "_admin",
          "type": "address"
        }
      ],
      "stateMutability": "nonpayable",
      "type": "constructor"
    },
    {
      "inputs": [],
      "name": "AccessControlBadConfirmation",
      "type": "error"
    },
    {
      "inputs": [
        {
          "internalType": "address",
          "name": "account",
          "type": "address"
        },
        {
          "internalType": "bytes32",
          "name": "neededRole",
          "type": "bytes32"
        }
      ],
      "name": "AccessControlUnauthorizedAccount",
      "type": "error"
    },
    {
      "inputs": [
        {
          "internalType": "address",
          "name": "token",
          "type": "address"
        }
      ],
      "name": "SafeERC20FailedOperation",
      "type": "error"
    },
    {
      "anonymous": false,
      "inputs": [
        {
          "indexed": true,
          "internalType": "bytes32",
          "name": "role",
          "type": "bytes32"
        },
        {
          "indexed": true,
          "internalType": "bytes32",
          "name": "previousAdminRole",
          "type": "bytes32"
        },
        {
          "indexed": true,
          "internalType": "bytes32",
          "name": "newAdminRole",
          "type": "bytes32"
        }
      ],
      "name": "RoleAdminChanged",
      "type": "event"
    },
    {
      "anonymous": false,
      "inputs": [
        {
          "indexed": true,
          "internalType": "bytes32",
          "name": "role",
          "type": "bytes32"
        },
        {
          "indexed": true,
          "internalType": "address",
          "name": "account",
          "type": "address"
        },
        {
          "indexed": true,
          "internalType": "address",
          "name": "sender",
          "type": "address"
        }
      ],
      "name": "RoleGranted",
      "type": "event"
    },
    {
      "anonymous": false,
      "inputs": [
        {
          "indexed": true,
          "internalType": "bytes32",
          "name": "role",
          "type": "bytes32"
        },
        {
          "indexed": true,
          "internalType": "address",
          "name": "account",
          "type": "address"
        },
        {
          "indexed": true,
          "internalType": "address",
          "name": "sender",
          "type": "address"
        }
      ],
      "name": "RoleRevoked",
      "type": "event"
    },
    {
      "inputs": [],
      "name": "DEFAULT_ADMIN_ROLE",
      "outputs": [
        {
          "internalType": "bytes32",
          "name": "",
          "type": "bytes32"
        }
      ],
      "stateMutability": "view",
      "type": "function"
    },
    {
      "inputs": [],
      "name": "VAULT_ROLE",
      "outputs": [
        {
          "internalType": "bytes32",
          "name": "",
          "type": "bytes32"
        }
      ],
      "stateMutability": "view",
      "type": "function"
    },
    {
      "inputs": [
        {
          "internalType": "address",
          "name": "",
          "type": "address"
        },
        {
          "internalType": "address",
          "name": "asset",
          "type": "address"
        },
        {
          "internalType": "uint256",
          "name": "amount",
          "type": "uint256"
        }
      ],
      "name": "deposit",
      "outputs": [
        {
          "internalType": "uint256",
          "name": "",
          "type": "uint256"
        }
      ],
      "stateMutability": "nonpayable",
      "type": "function"
    },
    {
      "inputs": [
        {
          "internalType": "address",
          "name": "vault",
          "type": "address"
        },
        {
          "internalType": "address",
          "name": "asset",
          "type": "address"
        },
        {
          "internalType": "address",
          "name": "to",
          "type": "address"
        }
      ],
      "name": "emergencyWithdraw",
      "outputs": [],
      "stateMutability": "nonpayable",
      "type": "function"
    },
    {
      "inputs": [
        {
          "internalType": "address",
          "name": "vault",
          "type": "address"
        },
        {
          "internalType": "address",
          "name": "asset",
          "type": "address"
        }
      ],
      "name": "getBalance",
      "outputs": [
        {
          "internalType": "uint256",
          "name": "",
          "type": "uint256"
        }
      ],
      "stateMutability": "view",
      "type": "function"
    },
    {
      "inputs": [
        {
          "internalType": "bytes32",
          "name": "role",
          "type": "bytes32"
        }
      ],
      "name": "getRoleAdmin",
      "outputs": [
        {
          "internalType": "bytes32",
          "name": "",
          "type": "bytes32"
        }
      ],
      "stateMutability": "view",
      "type": "function"
    },
    {
      "inputs": [
        {
          "internalType": "bytes32",
          "name": "role",
          "type": "bytes32"
        },
        {
          "internalType": "address",
          "name": "account",
          "type": "address"
        }
      ],
      "name": "grantRole",
      "outputs": [],
      "stateMutability": "nonpayable",
      "type": "function"
    },
    {
      "inputs": [
        {
          "internalType": "bytes32",
          "name": "role",
          "type": "bytes32"
        },
        {
          "internalType": "address",
          "name": "account",
          "type": "address"
        }
      ],
      "name": "hasRole",
      "outputs": [
        {
          "internalType": "bool",
          "name": "",
          "type": "bool"
        }
      ],
      "stateMutability": "view",
      "type": "function"
    },
    {
      "inputs": [
        {
          "internalType": "bytes32",
          "name": "role",
          "type": "bytes32"
        },
        {
          "internalType": "address",
          "name": "callerConfirmation",
          "type": "address"
        }
      ],
      "name": "renounceRole",
      "outputs": [],
      "stateMutability": "nonpayable",
      "type": "function"
    },
    {
      "inputs": [
        {
          "internalType": "bytes32",
          "name": "role",
          "type": "bytes32"
        },
        {
          "internalType": "address",
          "name": "account",
          "type": "address"
        }
      ],
      "name": "revokeRole",
      "outputs": [],
      "stateMutability": "nonpayable",
      "type": "function"
    },
    {
      "inputs": [
        {
          "internalType": "bytes4",
          "name": "interfaceId",
          "type": "bytes4"
        }
      ],
      "name": "supportsInterface",
      "outputs": [
        {
          "internalType": "bool",
          "name": "",
          "type": "bool"
        }
      ],
      "stateMutability": "view",
      "type": "function"
    },
    {
      "inputs": [
        {
          "internalType": "address",
          "name": "vault",
          "type": "address"
        },
        {
          "internalType": "address",
          "name": "asset",
          "type": "address"
        },
        {
          "internalType": "uint256",
          "name": "amount",
          "type": "uint256"
        },
        {
          "internalType": "address",
          "name": "to",
          "type": "address"
        }
      ],
      "name": "withdraw",
      "outputs": [
        {
          "internalType": "uint256",
          "name": "",
          "type": "uint256"
        }
      ],
      "stateMutability": "nonpayable",
      "type": "function"
    }
  ],
  "bytecode": "0x608060405234801561000f575f80fd5b506040516109a13803806109a183398101604081905261002e916100e8565b6100385f8261003f565b5050610115565b5f828152602081815260408083206001600160a01b038516845290915281205460ff166100df575f838152602081815260408083206001600160a01b03861684529091529020805460ff191660011790556100973390565b6001600160a01b0316826001600160a01b0316847f2f8788117e7eff1d82e926ec794901d17c78024a50270940304540a733656f0d60405160405180910390a45060016100e2565b505f5b92915050565b5f602082840312156100f8575f80fd5b81516001600160a01b038116811461010e575f80fd5b9392505050565b61087f806101225f395ff3fe608060405234801561000f575f80fd5b50600436106100b1575f3560e01c80638340f5491161006e5780638340f5491461015b57806391d148541461016e57806398c4f1ac14610181578063a217fddf14610195578063d4fac45d1461019c578063d547741f146101af575f80fd5b806301ffc9a7146100b55780630e917f76146100dd578063248a9ca3146100fe5780632f2ff15d1461012057806336568abe146101355780636173514d14610148575b5f80fd5b6100c86100c33660046106a4565b6101c2565b60405190151581526020015b60405180910390f35b6100f06100eb3660046106e6565b6101f8565b6040519081526020016100d4565b6100f061010c366004610730565b5f9081526020819052604090206001015490565b61013361012e366004610747565b61022e565b005b610133610143366004610747565b610258565b610133610156366004610771565b610290565b6100f06101693660046107b1565b610332565b6100c861017c366004610747565b610368565b6100f05f8051602061082a83398151915281565b6100f05f81565b6100f06101aa3660046107ea565b610390565b6101336101bd366004610747565b6103ff565b5f6001600160e01b03198216637965db0b60e01b14806101f257506301ffc9a760e01b6001600160e01b03198316145b92915050565b5f5f8051602061082a83398151915261021081610423565b6102246001600160a01b0386168486610430565b5091949350505050565b5f8281526020819052604090206001015461024881610423565b610252838361046a565b50505050565b6001600160a01b03811633146102815760405163334bd91960e11b815260040160405180910390fd5b61028b82826104f9565b505050565b5f8051602061082a8339815191526102a781610423565b6040516370a0823160e01b81523060048201525f906001600160a01b038516906370a0823190602401602060405180830381865afa1580156102eb573d5f803e3d5ffd5b505050506040513d601f19601f8201168201806040525081019061030f9190610812565b9050801561032b5761032b6001600160a01b0385168483610430565b5050505050565b5f5f8051602061082a83398151915261034a81610423565b61035f6001600160a01b038516333086610562565b50909392505050565b5f918252602082815260408084206001600160a01b0393909316845291905290205460ff1690565b6040516370a0823160e01b81523060048201525f906001600160a01b038316906370a0823190602401602060405180830381865afa1580156103d4573d5f803e3d5ffd5b505050506040513d601f19601f820116820180604052508101906103f89190610812565b9392505050565b5f8281526020819052604090206001015461041981610423565b61025283836104f9565b61042d8133610598565b50565b61043d83838360016105d5565b61028b57604051635274afe760e01b81526001600160a01b03841660048201526024015b60405180910390fd5b5f6104758383610368565b6104f2575f838152602081815260408083206001600160a01b03861684529091529020805460ff191660011790556104aa3390565b6001600160a01b0316826001600160a01b0316847f2f8788117e7eff1d82e926ec794901d17c78024a50270940304540a733656f0d60405160405180910390a45060016101f2565b505f6101f2565b5f6105048383610368565b156104f2575f838152602081815260408083206001600160a01b0386168085529252808320805460ff1916905551339286917ff6391f5c32d9c69d2a47ea670b442974b53935d1edc7fd64eb21e047a839171b9190a45060016101f2565b610570848484846001610637565b61025257604051635274afe760e01b81526001600160a01b0385166004820152602401610461565b6105a28282610368565b6105d15760405163e2517d3f60e01b81526001600160a01b038216600482015260248101839052604401610461565b5050565b60405163a9059cbb60e01b5f8181526001600160a01b038616600452602485905291602083604481808b5af1925060015f5114831661062b57838315161561061f573d5f823e3d81fd5b5f873b113d1516831692505b60405250949350505050565b6040516323b872dd60e01b5f8181526001600160a01b038781166004528616602452604485905291602083606481808c5af1925060015f51148316610693578383151615610687573d5f823e3d81fd5b5f883b113d1516831692505b604052505f60605295945050505050565b5f602082840312156106b4575f80fd5b81356001600160e01b0319811681146103f8575f80fd5b80356001600160a01b03811681146106e1575f80fd5b919050565b5f805f80608085870312156106f9575f80fd5b610702856106cb565b9350610710602086016106cb565b925060408501359150610725606086016106cb565b905092959194509250565b5f60208284031215610740575f80fd5b5035919050565b5f8060408385031215610758575f80fd5b82359150610768602084016106cb565b90509250929050565b5f805f60608486031215610783575f80fd5b61078c846106cb565b925061079a602085016106cb565b91506107a8604085016106cb565b90509250925092565b5f805f606084860312156107c3575f80fd5b6107cc846106cb565b92506107da602085016106cb565b9150604084013590509250925092565b5f80604083850312156107fb575f80fd5b610804836106cb565b9150610768602084016106cb565b5f60208284031215610822575f80fd5b505191905056fe31e0210044b4f6757ce6aa31f9c6e8d4896d24a755014887391a926c5224d959a26469706673582212207cdede9ba3e63d36b50f77ee047403362f9522bc03fbf21b7478bf7c6429160264736f6c63430008180033",
  "linkReferences": {},
  "deployedLinkReferences": {}
}