{
  "_format": "hh-sol-artifact-1",
  "contractName": "UniswapV3Adapter",
  "sourceName": "contracts/adapters/UniswapV3Adapter.sol",
  "abi": [
    {
      "inputs": [
        {
          "internalType": "address",
          "name": "_positionManager",
          "type": "address"
        },
        {
          "internalType": "address",
          "name": "_admin",
          "type": "address"
        }
      ],
      "stateMutability": "nonpayable",
      "type": "constructor"
    },
    {
      "inputs": [],
      "name": "AccessControlBadConfirmation",
      "type": "error"
    },
    {
      "inputs": [
        {
          "internalType": "address",
          "name": "account",
          "type": "address"
        },
        {
          "internalType": "bytes32",
          "name": "neededRole",
          "type": "bytes32"
        }
      ],
      "name": "AccessControlUnauthorizedAccount",
      "type": "error"
    },
    {
      "inputs": [
        {
          "internalType": "address",
          "name": "token",
          "type": "address"
        }
      ],
      "name": "SafeERC20FailedOperation",
      "type": "error"
    },
    {
      "anonymous": false,
      "inputs": [
        {
          "indexed": true,
          "internalType": "bytes32",
          "name": "role",
          "type": "bytes32"
        },
        {
          "indexed": true,
          "internalType": "bytes32",
          "name": "previousAdminRole",
          "type": "bytes32"
        },
        {
          "indexed": true,
          "internalType": "bytes32",
          "name": "newAdminRole",
          "type": "bytes32"
        }
      ],
      "name": "RoleAdminChanged",
      "type": "event"
    },
    {
      "anonymous": false,
      "inputs": [
        {
          "indexed": true,
          "internalType": "bytes32",
          "name": "role",
          "type": "bytes32"
        },
        {
          "indexed": true,
          "internalType": "address",
          "name": "account",
          "type": "address"
        },
        {
          "indexed": true,
          "internalType": "address",
          "name": "sender",
          "type": "address"
        }
      ],
      "name": "RoleGranted",
      "type": "event"
    },
    {
      "anonymous": false,
      "inputs": [
        {
          "indexed": true,
          "internalType": "bytes32",
          "name": "role",
          "type": "bytes32"
        },
        {
          "indexed": true,
          "internalType": "address",
          "name": "account",
          "type": "address"
        },
        {
          "indexed": true,
          "internalType": "address",
          "name": "sender",
          "type": "address"
        }
      ],
      "name": "RoleRevoked",
      "type": "event"
    },
    {
      "inputs": [],
      "name": "DEFAULT_ADMIN_ROLE",
      "outputs": [
        {
          "internalType": "bytes32",
          "name": "",
          "type": "bytes32"
        }
      ],
      "stateMutability": "view",
      "type": "function"
    },
    {
      "inputs": [],
      "name": "POSITION_MANAGER",
      "outputs": [
        {
          "internalType": "contract INonfungiblePositionManager",
          "name": "",
          "type": "address"
        }
      ],
      "stateMutability": "view",
      "type": "function"
    },
    {
      "inputs": [],
      "name": "VAULT_ROLE",
      "outputs": [
        {
          "internalType": "bytes32",
          "name": "",
          "type": "bytes32"
        }
      ],
      "stateMutability": "view",
      "type": "function"
    },
    {
      "inputs": [
        {
          "internalType": "address",
          "name": "",
          "type": "address"
        },
        {
          "internalType": "address",
          "name": "asset",
          "type": "address"
        },
        {
          "internalType": "uint256",
          "name": "amount",
          "type": "uint256"
        }
      ],
      "name": "deposit",
      "outputs": [
        {
          "internalType": "uint256",
          "name": "",
          "type": "uint256"
        }
      ],
      "stateMutability": "nonpayable",
      "type": "function"
    },
    {
      "inputs": [
        {
          "internalType": "address",
          "name": "vault",
          "type": "address"
        },
        {
          "internalType": "address",
          "name": "asset",
          "type": "address"
        },
        {
          "internalType": "address",
          "name": "to",
          "type": "address"
        }
      ],
      "name": "emergencyWithdraw",
      "outputs": [],
      "stateMutability": "nonpayable",
      "type": "function"
    },
    {
      "inputs": [
        {
          "internalType": "address",
          "name": "vault",
          "type": "address"
        },
        {
          "internalType": "address",
          "name": "asset",
          "type": "address"
        }
      ],
      "name": "getBalance",
      "outputs": [
        {
          "internalType": "uint256",
          "name": "",
          "type": "uint256"
        }
      ],
      "stateMutability": "view",
      "type": "function"
    },
    {
      "inputs": [
        {
          "internalType": "bytes32",
          "name": "role",
          "type": "bytes32"
        }
      ],
      "name": "getRoleAdmin",
      "outputs": [
        {
          "internalType": "bytes32",
          "name": "",
          "type": "bytes32"
        }
      ],
      "stateMutability": "view",
      "type": "function"
    },
    {
      "inputs": [
        {
          "internalType": "bytes32",
          "name": "role",
          "type": "bytes32"
        },
        {
          "internalType": "address",
          "name": "account",
          "type": "address"
        }
      ],
      "name": "grantRole",
      "outputs": [],
      "stateMutability": "nonpayable",
      "type": "function"
    },
    {
      "inputs": [
        {
          "internalType": "bytes32",
          "name": "role",
          "type": "bytes32"
        },
        {
          "internalType": "address",
          "name": "account",
          "type": "address"
        }
      ],
      "name": "hasRole",
      "outputs": [
        {
          "internalType": "bool",
          "name": "",
          "type": "bool"
        }
      ],
      "stateMutability": "view",
      "type": "function"
    },
    {
      "inputs": [
        {
          "internalType": "bytes32",
          "name": "role",
          "type": "bytes32"
        },
        {
          "internalType": "address",
          "name": "callerConfirmation",
          "type": "address"
        }
      ],
      "name": "renounceRole",
      "outputs": [],
      "stateMutability": "nonpayable",
      "type": "function"
    },
    {
      "inputs": [
        {
          "internalType": "bytes32",
          "name": "role",
          "type": "bytes32"
        },
        {
          "internalType": "address",
          "name": "account",
          "type": "address"
        }
      ],
      "name": "revokeRole",
      "outputs": [],
      "stateMutability": "nonpayable",
      "type": "function"
    },
    {
      "inputs": [
        {
          "internalType": "bytes4",
          "name": "interfaceId",
          "type": "bytes4"
        }
      ],
      "name": "supportsInterface",
      "outputs": [
        {
          "internalType": "bool",
          "name": "",
          "type": "bool"
        }
      ],
      "stateMutability": "view",
      "type": "function"
    },
    {
      "inputs": [
        {
          "internalType": "address",
          "name": "",
          "type": "address"
        },
        {
          "internalType": "address",
          "name": "",
          "type": "address"
        }
      ],
      "name": "vaultPositions",
      "outputs": [
        {
          "internalType": "uint256",
          "name": "",
          "type": "uint256"
        }
      ],
      "stateMutability": "view",
      "type": "function"
    },
    {
      "inputs": [
        {
          "internalType": "address",
          "name": "vault",
          "type": "address"
        },
        {
          "internalType": "address",
          "name": "asset",
          "type": "address"
        },
        {
          "internalType": "uint256",
          "name": "amount",
          "type": "uint256"
        },
        {
          "internalType": "address",
          "name": "to",
          "type": "address"
        }
      ],
      "name": "withdraw",
      "outputs": [
        {
          "internalType": "uint256",
          "name": "",
          "type": "uint256"
        }
      ],
      "stateMutability": "nonpayable",
      "type": "function"
    }
  ],
  "bytecode": "0x60a060405234801561000f575f80fd5b50604051610a76380380610a7683398101604081905261002e91610111565b6001600160a01b0382166080526100455f8261004d565b505050610142565b5f828152602081815260408083206001600160a01b038516845290915281205460ff166100ed575f838152602081815260408083206001600160a01b03861684529091529020805460ff191660011790556100a53390565b6001600160a01b0316826001600160a01b0316847f2f8788117e7eff1d82e926ec794901d17c78024a50270940304540a733656f0d60405160405180910390a45060016100f0565b505f5b92915050565b80516001600160a01b038116811461010c575f80fd5b919050565b5f8060408385031215610122575f80fd5b61012b836100f6565b9150610139602084016100f6565b90509250929050565b60805161091c61015a5f395f610137015261091c5ff3fe608060405234801561000f575f80fd5b50600436106100e5575f3560e01c80638340f5491161008857806398c4f1ac1161006357806398c4f1ac1461021e578063a217fddf14610232578063d4fac45d14610239578063d547741f1461024c575f80fd5b80638340f549146101ce57806391d14854146101e15780639725ec27146101f4575f80fd5b8063248a9ca3116100c3578063248a9ca3146101715780632f2ff15d1461019357806336568abe146101a85780636173514d146101bb575f80fd5b806301ffc9a7146100e95780630e917f76146101115780631bea83fe14610132575b5f80fd5b6100fc6100f7366004610741565b61025f565b60405190151581526020015b60405180910390f35b61012461011f366004610783565b610295565b604051908152602001610108565b6101597f000000000000000000000000000000000000000000000000000000000000000081565b6040516001600160a01b039091168152602001610108565b61012461017f3660046107cd565b5f9081526020819052604090206001015490565b6101a66101a13660046107e4565b6102cb565b005b6101a66101b63660046107e4565b6102f5565b6101a66101c936600461080e565b61032d565b6101246101dc36600461084e565b6103cf565b6100fc6101ef3660046107e4565b610405565b610124610202366004610887565b600160209081525f928352604080842090915290825290205481565b6101245f805160206108c783398151915281565b6101245f81565b610124610247366004610887565b61042d565b6101a661025a3660046107e4565b61049c565b5f6001600160e01b03198216637965db0b60e01b148061028f57506301ffc9a760e01b6001600160e01b03198316145b92915050565b5f5f805160206108c78339815191526102ad816104c0565b6102c16001600160a01b03861684866104cd565b5091949350505050565b5f828152602081905260409020600101546102e5816104c0565b6102ef8383610507565b50505050565b6001600160a01b038116331461031e5760405163334bd91960e11b815260040160405180910390fd5b6103288282610596565b505050565b5f805160206108c7833981519152610344816104c0565b6040516370a0823160e01b81523060048201525f906001600160a01b038516906370a0823190602401602060405180830381865afa158015610388573d5f803e3d5ffd5b505050506040513d601f19601f820116820180604052508101906103ac91906108af565b905080156103c8576103c86001600160a01b03851684836104cd565b5050505050565b5f5f805160206108c78339815191526103e7816104c0565b6103fc6001600160a01b0385163330866105ff565b50909392505050565b5f918252602082815260408084206001600160a01b0393909316845291905290205460ff1690565b6040516370a0823160e01b81523060048201525f906001600160a01b038316906370a0823190602401602060405180830381865afa158015610471573d5f803e3d5ffd5b505050506040513d601f19601f8201168201806040525081019061049591906108af565b9392505050565b5f828152602081905260409020600101546104b6816104c0565b6102ef8383610596565b6104ca8133610635565b50565b6104da8383836001610672565b61032857604051635274afe760e01b81526001600160a01b03841660048201526024015b60405180910390fd5b5f6105128383610405565b61058f575f838152602081815260408083206001600160a01b03861684529091529020805460ff191660011790556105473390565b6001600160a01b0316826001600160a01b0316847f2f8788117e7eff1d82e926ec794901d17c78024a50270940304540a733656f0d60405160405180910390a450600161028f565b505f61028f565b5f6105a18383610405565b1561058f575f838152602081815260408083206001600160a01b0386168085529252808320805460ff1916905551339286917ff6391f5c32d9c69d2a47ea670b442974b53935d1edc7fd64eb21e047a839171b9190a450600161028f565b61060d8484848460016106d4565b6102ef57604051635274afe760e01b81526001600160a01b03851660048201526024016104fe565b61063f8282610405565b61066e5760405163e2517d3f60e01b81526001600160a01b0382166004820152602481018390526044016104fe565b5050565b60405163a9059cbb60e01b5f8181526001600160a01b038616600452602485905291602083604481808b5af1925060015f511483166106c85783831516156106bc573d5f823e3d81fd5b5f873b113d1516831692505b60405250949350505050565b6040516323b872dd60e01b5f8181526001600160a01b038781166004528616602452604485905291602083606481808c5af1925060015f51148316610730578383151615610724573d5f823e3d81fd5b5f883b113d1516831692505b604052505f60605295945050505050565b5f60208284031215610751575f80fd5b81356001600160e01b031981168114610495575f80fd5b80356001600160a01b038116811461077e575f80fd5b919050565b5f805f8060808587031215610796575f80fd5b61079f85610768565b93506107ad60208601610768565b9250604085013591506107c260608601610768565b905092959194509250565b5f602082840312156107dd575f80fd5b5035919050565b5f80604083850312156107f5575f80fd5b8235915061080560208401610768565b90509250929050565b5f805f60608486031215610820575f80fd5b61082984610768565b925061083760208501610768565b915061084560408501610768565b90509250925092565b5f805f60608486031215610860575f80fd5b61086984610768565b925061087760208501610768565b9150604084013590509250925092565b5f8060408385031215610898575f80fd5b6108a183610768565b915061080560208401610768565b5f602082840312156108bf575f80fd5b505191905056fe31e0210044b4f6757ce6aa31f9c6e8d4896d24a755014887391a926c5224d959a2646970667358221220871b59b80631b0b68059c1abb9ba87f08cced5825f6d3a3847bd7e302f62f29a64736f6c63430008180033",
  "linkReferences": {},
  "deployedLinkReferences": {}
}