{
  "_format": "hh-sol-artifact-1",
  "contractName": "SentinelChainlinkOracle",
  "sourceName": "contracts/SentinelChainlinkOracle.sol",
  "abi": [
    {
      "inputs": [
        {
          "internalType": "address",
          "name": "_admin",
          "type": "address"
        },
        {
          "internalType": "address",
          "name": "_sequencerUptimeFeed",
          "type": "address"
        }
      ],
      "stateMutability": "nonpayable",
      "type": "constructor"
    },
    {
      "inputs": [
        {
          "internalType": "address",
          "name": "owner",
          "type": "address"
        }
      ],
      "name": "OwnableInvalidOwner",
      "type": "error"
    },
    {
      "inputs": [
        {
          "internalType": "address",
          "name": "account",
          "type": "address"
        }
      ],
      "name": "OwnableUnauthorizedAccount",
      "type": "error"
    },
    {
      "inputs": [],
      "name": "Sentinel__InvalidAddress",
      "type": "error"
    },
    {
      "inputs": [],
      "name": "Sentinel__InvalidPriceFeed",
      "type": "error"
    },
    {
      "inputs": [],
      "name": "Sentinel__SequencerDown",
      "type": "error"
    },
    {
      "anonymous": false,
      "inputs": [
        {
          "indexed": true,
          "internalType": "address",
          "name": "previousOwner",
          "type": "address"
        },
        {
          "indexed": true,
          "internalType": "address",
          "name": "newOwner",
          "type": "address"
        }
      ],
      "name": "OwnershipTransferred",
      "type": "event"
    },
    {
      "anonymous": false,
      "inputs": [
        {
          "indexed": true,
          "internalType": "address",
          "name": "asset",
          "type": "address"
        },
        {
          "indexed": true,
          "internalType": "address",
          "name": "feed",
          "type": "address"
        },
        {
          "indexed": true,
          "internalType": "uint256",
          "name": "heartbeat",
          "type": "uint256"
        }
      ],
      "name": "PriceFeedUpdated",
      "type": "event"
    },
    {
      "inputs": [],
      "name": "GRACE_PERIOD_TIME",
      "outputs": [
        {
          "internalType": "uint256",
          "name": "",
          "type": "uint256"
        }
      ],
      "stateMutability": "view",
      "type": "function"
    },
    {
      "inputs": [
        {
          "internalType": "address",
          "name": "asset",
          "type": "address"
        }
      ],
      "name": "getRiskScore",
      "outputs": [
        {
          "internalType": "uint256",
          "name": "",
          "type": "uint256"
        }
      ],
      "stateMutability": "view",
      "type": "function"
    },
    {
      "inputs": [
        {
          "internalType": "address",
          "name": "",
          "type": "address"
        }
      ],
      "name": "heartbeat",
      "outputs": [
        {
          "internalType": "uint256",
          "name": "",
          "type": "uint256"
        }
      ],
      "stateMutability": "view",
      "type": "function"
    },
    {
      "inputs": [],
      "name": "isEmergencyActive",
      "outputs": [
        {
          "internalType": "bool",
          "name": "",
          "type": "bool"
        }
      ],
      "stateMutability": "view",
      "type": "function"
    },
    {
      "inputs": [],
      "name": "owner",
      "outputs": [
        {
          "internalType": "address",
          "name": "",
          "type": "address"
        }
      ],
      "stateMutability": "view",
      "type": "function"
    },
    {
      "inputs": [
        {
          "internalType": "address",
          "name": "",
          "type": "address"
        }
      ],
      "name": "priceFeeds",
      "outputs": [
        {
          "internalType": "address",
          "name": "",
          "type": "address"
        }
      ],
      "stateMutability": "view",
      "type": "function"
    },
    {
      "inputs": [],
      "name": "renounceOwnership",
      "outputs": [],
      "stateMutability": "nonpayable",
      "type": "function"
    },
    {
      "inputs": [],
      "name": "sequencerUptimeFeed",
      "outputs": [
        {
          "internalType": "address",
          "name": "",
          "type": "address"
        }
      ],
      "stateMutability": "view",
      "type": "function"
    },
    {
      "inputs": [
        {
          "internalType": "address",
          "name": "asset",
          "type": "address"
        },
        {
          "internalType": "address",
          "name": "feed",
          "type": "address"
        },
        {
          "internalType": "uint256",
          "name": "_heartbeat",
          "type": "uint256"
        }
      ],
      "name": "setPriceFeed",
      "outputs": [],
      "stateMutability": "nonpayable",
      "type": "function"
    },
    {
      "inputs": [
        {
          "internalType": "address",
          "name": "newOwner",
          "type": "address"
        }
      ],
      "name": "transferOwnership",
      "outputs": [],
      "stateMutability": "nonpayable",
      "type": "function"
    }
  ],
  "bytecode": "0x60a060405234801561000f575f80fd5b5060405161084b38038061084b83398101604081905261002e91610109565b816001600160a01b03811661005c57604051631e4fbdf760e01b81525f600482015260240160405180910390fd5b6100658161009f565b506001600160a01b03821661008d5760405163be79875760e01b815260040160405180910390fd5b6001600160a01b03166080525061013a565b5f80546001600160a01b038381166001600160a01b0319831681178455604051919092169283917f8be0079c531659141344cd1fd0a4f28419497f9722a3daafe3b4186f6b6457e09190a35050565b80516001600160a01b0381168114610104575f80fd5b919050565b5f806040838503121561011a575f80fd5b610123836100ee565b9150610131602084016100ee565b90509250929050565b6080516106eb6101605f395f8181610117015281816101ab01526101df01526106eb5ff3fe608060405234801561000f575f80fd5b506004361061009b575f3560e01c8063b7a1bb1511610063578063b7a1bb1514610139578063dc08706d14610166578063eceb9a9c14610179578063ed2f86031461018c578063f2fde38b14610195575f80fd5b80635f9515291461009f578063715018a6146100bc5780638da5cb5b146100c65780639dcb511a146100ea578063a726470514610112575b5f80fd5b6100a76101a8565b60405190151581526020015b60405180910390f35b6100c46102f6565b005b5f546001600160a01b03165b6040516001600160a01b0390911681526020016100b3565b6100d26100f83660046105ba565b60016020525f90815260409020546001600160a01b031681565b6100d27f000000000000000000000000000000000000000000000000000000000000000081565b6101586101473660046105ba565b60026020525f908152604090205481565b6040519081526020016100b3565b6101586101743660046105ba565b610309565b6100c46101873660046105da565b610473565b610158610e1081565b6100c46101a33660046105ba565b6104e2565b5f7f00000000000000000000000000000000000000000000000000000000000000006001600160a01b0316156102f1575f805f805f7f00000000000000000000000000000000000000000000000000000000000000006001600160a01b031663feaf968c6040518163ffffffff1660e01b815260040160a060405180830381865afa158015610239573d5f803e3d5ffd5b505050506040513d601f19601f8201168201806040525081019061025d9190610629565b94509450945094509450846001600160501b03165f148061027c575081155b806102985750846001600160501b0316816001600160501b0316105b156102a95760019550505050505090565b6001841480156102c0576001965050505050505090565b6102cd610e106001610689565b6102d785426106a2565b10156102ea576001965050505050505090565b5050505050505b505f90565b6102fe610524565b6103075f610550565b565b6001600160a01b038082165f90815260016020526040812054909116806103335750606492915050565b61033b6101a8565b156103495750606492915050565b5f805f805f856001600160a01b031663feaf968c6040518163ffffffff1660e01b815260040160a060405180830381865afa15801561038a573d5f803e3d5ffd5b505050506040513d601f19601f820116820180604052508101906103ae9190610629565b9450945094509450945060018412806103ce57506001600160501b038516155b806103d7575081155b806103f35750846001600160501b0316816001600160501b0316105b156104065750605a979650505050505050565b5f61041183426106a2565b6001600160a01b038a165f908152600260205260409020549091501580159061045057506001600160a01b0389165f9081526002602052604090205481115b156104645750605098975050505050505050565b50600a98975050505050505050565b61047b610524565b6001600160a01b038381165f81815260016020908152604080832080546001600160a01b0319169588169586179055600290915280822085905551849392917f9133c44a288cf07c9e3c56b4d0cb5982200a180e0c9ea030485ca93950ef19bf91a4505050565b6104ea610524565b6001600160a01b03811661051857604051631e4fbdf760e01b81525f60048201526024015b60405180910390fd5b61052181610550565b50565b5f546001600160a01b031633146103075760405163118cdaa760e01b815233600482015260240161050f565b5f80546001600160a01b038381166001600160a01b0319831681178455604051919092169283917f8be0079c531659141344cd1fd0a4f28419497f9722a3daafe3b4186f6b6457e09190a35050565b80356001600160a01b03811681146105b5575f80fd5b919050565b5f602082840312156105ca575f80fd5b6105d38261059f565b9392505050565b5f805f606084860312156105ec575f80fd5b6105f58461059f565b92506106036020850161059f565b9150604084013590509250925092565b80516001600160501b03811681146105b5575f80fd5b5f805f805f60a0868803121561063d575f80fd5b61064686610613565b945060208601519350604086015192506060860151915061066960808701610613565b90509295509295909350565b634e487b7160e01b5f52601160045260245ffd5b8082018082111561069c5761069c610675565b92915050565b8181038181111561069c5761069c61067556fea2646970667358221220524dd6fcc1e5dfce68be1170c13fb9b78ddd0d7bd58ba6968ca090cd743b30bf64736f6c63430008180033",
  "linkReferences": {},
  "deployedLinkReferences": {}
}