{
  "_format": "hh-sol-artifact-1",
  "contractName": "MockPriceFeed",
  "sourceName": "contracts/mocks/MockPriceFeed.sol",
  "abi": [
    {
      "inputs": [
        {
          "internalType": "int256",
          "name": "_price",
          "type": "int256"
        }
      ],
      "stateMutability": "nonpayable",
      "type": "constructor"
    },
    {
      "inputs": [],
      "name": "decimals",
      "outputs": [
        {
          "internalType": "uint8",
          "name": "",
          "type": "uint8"
        }
      ],
      "stateMutability": "view",
      "type": "function"
    },
    {
      "inputs": [],
      "name": "latestRoundData",
      "outputs": [
        {
          "internalType": "uint80",
          "name": "roundId",
          "type": "uint80"
        },
        {
          "internalType": "int256",
          "name": "answer",
          "type": "int256"
        },
        {
          "internalType": "uint256",
          "name": "startedAt",
          "type": "uint256"
        },
        {
          "internalType": "uint256",
          "name": "updatedAt_",
          "type": "uint256"
        },
        {
          "internalType": "uint80",
          "name": "answeredInRound",
          "type": "uint80"
        }
      ],
      "stateMutability": "view",
      "type": "function"
    },
    {
      "inputs": [],
      "name": "price",
      "outputs": [
        {
          "internalType": "int256",
          "name": "",
          "type": "int256"
        }
      ],
      "stateMutability": "view",
      "type": "function"
    },
    {
      "inputs": [
        {
          "internalType": "int256",
          "name": "_price",
          "type": "int256"
        }
      ],
      "name": "setPrice",
      "outputs": [],
      "stateMutability": "nonpayable",
      "type": "function"
    },
    {
      "inputs": [],
      "name": "updatedAt",
      "outputs": [
        {
          "internalType": "uint256",
          "name": "",
          "type": "uint256"
        }
      ],
      "stateMutability": "view",
      "type": "function"
    }
  ],
  "bytecode": "0x60806040526002805460ff1916600817905534801561001c575f80fd5b5060405161018738038061018783398101604081905261003b91610046565b5f554260015561005d565b5f60208284031215610056575f80fd5b5051919050565b61011d8061006a5f395ff3fe6080604052348015600e575f80fd5b5060043610604e575f3560e01c8063313ce5671460525780637519ab50146075578063a035b1fe14608a578063f7a30806146091578063feaf968c1460a6575b5f80fd5b600254605e9060ff1681565b60405160ff90911681526020015b60405180910390f35b607d60015481565b604051908152602001606c565b607d5f5481565b60a4609c36600460d1565b5f5542600155565b005b5f546001805460408051838152602081019490945283018190526060830152608082015260a001606c565b5f6020828403121560e0575f80fd5b503591905056fea2646970667358221220210fd8173812aae375312a9e2d3e676dd23d02c286c0392c94413f12946c090c64736f6c63430008180033",
  "linkReferences": {},
  "deployedLinkReferences": {}
}