{
  "_format": "hh-sol-artifact-1",
  "contractName": "AaveV3Adapter",
  "sourceName": "contracts/adapters/AaveV3Adapter.sol",
  "abi": [
    {
      "inputs": [
        {
          "internalType": "address",
          "name": "_aavePool",
          "type": "address"
        },
        {
          "internalType": "address",
          "name": "_admin",
          "type": "address"
        }
      ],
      "stateMutability": "nonpayable",
      "type": "constructor"
    },
    {
      "inputs": [],
      "name": "AccessControlBadConfirmation",
      "type": "error"
    },
    {
      "inputs": [
        {
          "internalType": "address",
          "name": "account",
          "type": "address"
        },
        {
          "internalType": "bytes32",
          "name": "neededRole",
          "type": "bytes32"
        }
      ],
      "name": "AccessControlUnauthorizedAccount",
      "type": "error"
    },
    {
      "inputs": [
        {
          "internalType": "address",
          "name": "token",
          "type": "address"
        }
      ],
      "name": "SafeERC20FailedOperation",
      "type": "error"
    },
    {
      "anonymous": false,
      "inputs": [
        {
          "indexed": true,
          "internalType": "bytes32",
          "name": "role",
          "type": "bytes32"
        },
        {
          "indexed": true,
          "internalType": "bytes32",
          "name": "previousAdminRole",
          "type": "bytes32"
        },
        {
          "indexed": true,
          "internalType": "bytes32",
          "name": "newAdminRole",
          "type": "bytes32"
        }
      ],
      "name": "RoleAdminChanged",
      "type": "event"
    },
    {
      "anonymous": false,
      "inputs": [
        {
          "indexed": true,
          "internalType": "bytes32",
          "name": "role",
          "type": "bytes32"
        },
        {
          "indexed": true,
          "internalType": "address",
          "name": "account",
          "type": "address"
        },
        {
          "indexed": true,
          "internalType": "address",
          "name": "sender",
          "type": "address"
        }
      ],
      "name": "RoleGranted",
      "type": "event"
    },
    {
      "anonymous": false,
      "inputs": [
        {
          "indexed": true,
          "internalType": "bytes32",
          "name": "role",
          "type": "bytes32"
        },
        {
          "indexed": true,
          "internalType": "address",
          "name": "account",
          "type": "address"
        },
        {
          "indexed": true,
          "internalType": "address",
          "name": "sender",
          "type": "address"
        }
      ],
      "name": "RoleRevoked",
      "type": "event"
    },
    {
      "inputs": [],
      "name": "AAVE_POOL",
      "outputs": [
        {
          "internalType": "contract IAavePool",
          "name": "",
          "type": "address"
        }
      ],
      "stateMutability": "view",
      "type": "function"
    },
    {
      "inputs": [],
      "name": "DEFAULT_ADMIN_ROLE",
      "outputs": [
        {
          "internalType": "bytes32",
          "name": "",
          "type": "bytes32"
        }
      ],
      "stateMutability": "view",
      "type": "function"
    },
    {
      "inputs": [],
      "name": "VAULT_ROLE",
      "outputs": [
        {
          "internalType": "bytes32",
          "name": "",
          "type": "bytes32"
        }
      ],
      "stateMutability": "view",
      "type": "function"
    },
    {
      "inputs": [
        {
          "internalType": "address",
          "name": "",
          "type": "address"
        }
      ],
      "name": "aTokens",
      "outputs": [
        {
          "internalType": "address",
          "name": "",
          "type": "address"
        }
      ],
      "stateMutability": "view",
      "type": "function"
    },
    {
      "inputs": [
        {
          "internalType": "address",
          "name": "",
          "type": "address"
        },
        {
          "internalType": "address",
          "name": "asset",
          "type": "address"
        },
        {
          "internalType": "uint256",
          "name": "amount",
          "type": "uint256"
        }
      ],
      "name": "deposit",
      "outputs": [
        {
          "internalType": "uint256",
          "name": "",
          "type": "uint256"
        }
      ],
      "stateMutability": "nonpayable",
      "type": "function"
    },
    {
      "inputs": [
        {
          "internalType": "address",
          "name": "",
          "type": "address"
        },
        {
          "internalType": "address",
          "name": "asset",
          "type": "address"
        },
        {
          "internalType": "address",
          "name": "to",
          "type": "address"
        }
      ],
      "name": "emergencyWithdraw",
      "outputs": [],
      "stateMutability": "nonpayable",
      "type": "function"
    },
    {
      "inputs": [
        {
          "internalType": "address",
          "name": "vault",
          "type": "address"
        },
        {
          "internalType": "address",
          "name": "asset",
          "type": "address"
        }
      ],
      "name": "getBalance",
      "outputs": [
        {
          "internalType": "uint256",
          "name": "",
          "type": "uint256"
        }
      ],
      "stateMutability": "view",
      "type": "function"
    },
    {
      "inputs": [
        {
          "internalType": "bytes32",
          "name": "role",
          "type": "bytes32"
        }
      ],
      "name": "getRoleAdmin",
      "outputs": [
        {
          "internalType": "bytes32",
          "name": "",
          "type": "bytes32"
        }
      ],
      "stateMutability": "view",
      "type": "function"
    },
    {
      "inputs": [
        {
          "internalType": "bytes32",
          "name": "role",
          "type": "bytes32"
        },
        {
          "internalType": "address",
          "name": "account",
          "type": "address"
        }
      ],
      "name": "grantRole",
      "outputs": [],
      "stateMutability": "nonpayable",
      "type": "function"
    },
    {
      "inputs": [
        {
          "internalType": "bytes32",
          "name": "role",
          "type": "bytes32"
        },
        {
          "internalType": "address",
          "name": "account",
          "type": "address"
        }
      ],
      "name": "hasRole",
      "outputs": [
        {
          "internalType": "bool",
          "name": "",
          "type": "bool"
        }
      ],
      "stateMutability": "view",
      "type": "function"
    },
    {
      "inputs": [
        {
          "internalType": "bytes32",
          "name": "role",
          "type": "bytes32"
        },
        {
          "internalType": "address",
          "name": "callerConfirmation",
          "type": "address"
        }
      ],
      "name": "renounceRole",
      "outputs": [],
      "stateMutability": "nonpayable",
      "type": "function"
    },
    {
      "inputs": [
        {
          "internalType": "bytes32",
          "name": "role",
          "type": "bytes32"
        },
        {
          "internalType": "address",
          "name": "account",
          "type": "address"
        }
      ],
      "name": "revokeRole",
      "outputs": [],
      "stateMutability": "nonpayable",
      "type": "function"
    },
    {
      "inputs": [
        {
          "internalType": "address",
          "name": "asset",
          "type": "address"
        },
        {
          "internalType": "address",
          "name": "aToken",
          "type": "address"
        }
      ],
      "name": "setAToken",
      "outputs": [],
      "stateMutability": "nonpayable",
      "type": "function"
    },
    {
      "inputs": [
        {
          "internalType": "bytes4",
          "name": "interfaceId",
          "type": "bytes4"
        }
      ],
      "name": "supportsInterface",
      "outputs": [
        {
          "internalType": "bool",
          "name": "",
          "type": "bool"
        }
      ],
      "stateMutability": "view",
      "type": "function"
    },
    {
      "inputs": [
        {
          "internalType": "address",
          "name": "vault",
          "type": "address"
        },
        {
          "internalType": "address",
          "name": "asset",
          "type": "address"
        },
        {
          "internalType": "uint256",
          "name": "amount",
          "type": "uint256"
        },
        {
          "internalType": "address",
          "name": "to",
          "type": "address"
        }
      ],
      "name": "withdraw",
      "outputs": [
        {
          "internalType": "uint256",
          "name": "",
          "type": "uint256"
        }
      ],
      "stateMutability": "nonpayable",
      "type": "function"
    }
  ],
  "bytecode": "0x60a060405234801561000f575f80fd5b50604051610e32380380610e3283398101604081905261002e91610111565b6001600160a01b0382166080526100455f8261004d565b505050610142565b5f828152602081815260408083206001600160a01b038516845290915281205460ff166100ed575f838152602081815260408083206001600160a01b03861684529091529020805460ff191660011790556100a53390565b6001600160a01b0316826001600160a01b0316847f2f8788117e7eff1d82e926ec794901d17c78024a50270940304540a733656f0d60405160405180910390a45060016100f0565b505f5b92915050565b80516001600160a01b038116811461010c575f80fd5b919050565b5f8060408385031215610122575f80fd5b61012b836100f6565b9150610139602084016100f6565b90509250929050565b608051610cbc6101765f395f8181610121015281816102f7015281816104140152818161058701526105de0152610cbc5ff3fe608060405234801561000f575f80fd5b50600436106100f0575f3560e01c80636173514d11610093578063a1e26f4b11610063578063a1e26f4b1461023b578063a217fddf1461024e578063d4fac45d14610255578063d547741f14610268575f80fd5b80636173514d146101ee5780638340f5491461020157806391d148541461021457806398c4f1ac14610227575f80fd5b8063248a9ca3116100ce578063248a9ca31461017c5780632f2ff15d1461019e57806336568abe146101b35780633e108ad9146101c6575f80fd5b806301ffc9a7146100f457806308a016751461011c5780630e917f761461015b575b5f80fd5b610107610102366004610aa2565b61027b565b60405190151581526020015b60405180910390f35b6101437f000000000000000000000000000000000000000000000000000000000000000081565b6040516001600160a01b039091168152602001610113565b61016e610169366004610aeb565b6102b1565b604051908152602001610113565b61016e61018a366004610b35565b5f9081526020819052604090206001015490565b6101b16101ac366004610b4c565b61036b565b005b6101b16101c1366004610b4c565b610395565b6101436101d4366004610b76565b60016020525f90815260409020546001600160a01b031681565b6101b16101fc366004610b8f565b6103cd565b61016e61020f366004610bcf565b61054b565b610107610222366004610b4c565b61063e565b61016e5f80516020610c6783398151915281565b6101b1610249366004610c08565b610666565b61016e5f81565b61016e610263366004610c08565b61069e565b6101b1610276366004610b4c565b610736565b5f6001600160e01b03198216637965db0b60e01b14806102ab57506301ffc9a760e01b6001600160e01b03198316145b92915050565b5f5f80516020610c678339815191526102c98161075a565b604051631a4ca37b60e21b81526001600160a01b0386811660048301526024820186905284811660448301527f000000000000000000000000000000000000000000000000000000000000000016906369328dec906064016020604051808303815f875af115801561033d573d5f803e3d5ffd5b505050506040513d601f19601f820116820180604052508101906103619190610c30565b9695505050505050565b5f828152602081905260409020600101546103858161075a565b61038f8383610767565b50505050565b6001600160a01b03811633146103be5760405163334bd91960e11b815260040160405180910390fd5b6103c882826107f6565b505050565b5f80516020610c678339815191526103e48161075a565b604051631a4ca37b60e21b81526001600160a01b0384811660048301525f19602483015283811660448301525f917f0000000000000000000000000000000000000000000000000000000000000000909116906369328dec906064016020604051808303815f875af115801561045c573d5f803e3d5ffd5b505050506040513d601f19601f820116820180604052508101906104809190610c30565b90505f8111806104f357506040516370a0823160e01b81523060048201526001600160a01b038516906370a0823190602401602060405180830381865afa1580156104cd573d5f803e3d5ffd5b505050506040513d601f19601f820116820180604052508101906104f19190610c30565b155b6105445760405162461bcd60e51b815260206004820152601f60248201527f416176653a20456d657267656e6379207769746864726177206661696c65640060448201526064015b60405180910390fd5b5050505050565b5f5f80516020610c678339815191526105638161075a565b6105786001600160a01b03851633308661085f565b6105ac6001600160a01b0385167f000000000000000000000000000000000000000000000000000000000000000085610895565b60405163617ba03760e01b81526001600160a01b038581166004830152602482018590523060448301525f60648301527f0000000000000000000000000000000000000000000000000000000000000000169063617ba037906084015f604051808303815f87803b15801561061f575f80fd5b505af1158015610631573d5f803e3d5ffd5b5094979650505050505050565b5f918252602082815260408084206001600160a01b0393909316845291905290205460ff1690565b5f6106708161075a565b506001600160a01b039182165f90815260016020526040902080546001600160a01b03191691909216179055565b6001600160a01b038082165f90815260016020526040812054909116806106c8575f9150506102ab565b6040516370a0823160e01b81523060048201526001600160a01b038216906370a0823190602401602060405180830381865afa15801561070a573d5f803e3d5ffd5b505050506040513d601f19601f8201168201806040525081019061072e9190610c30565b949350505050565b5f828152602081905260409020600101546107508161075a565b61038f83836107f6565b610764813361091c565b50565b5f610772838361063e565b6107ef575f838152602081815260408083206001600160a01b03861684529091529020805460ff191660011790556107a73390565b6001600160a01b0316826001600160a01b0316847f2f8788117e7eff1d82e926ec794901d17c78024a50270940304540a733656f0d60405160405180910390a45060016102ab565b505f6102ab565b5f610801838361063e565b156107ef575f838152602081815260408083206001600160a01b0386168085529252808320805460ff1916905551339286917ff6391f5c32d9c69d2a47ea670b442974b53935d1edc7fd64eb21e047a839171b9190a45060016102ab565b61086d848484846001610959565b61038f57604051635274afe760e01b81526001600160a01b038516600482015260240161053b565b604051636eb1769f60e11b81523060048201526001600160a01b0383811660248301525f919085169063dd62ed3e90604401602060405180830381865afa1580156108e2573d5f803e3d5ffd5b505050506040513d601f19601f820116820180604052508101906109069190610c30565b905061038f84846109178585610c47565b6109c6565b610926828261063e565b6109555760405163e2517d3f60e01b81526001600160a01b03821660048201526024810183905260440161053b565b5050565b6040516323b872dd60e01b5f8181526001600160a01b038781166004528616602452604485905291602083606481808c5af1925060015f511483166109b55783831516156109a9573d5f823e3d81fd5b5f883b113d1516831692505b604052505f60605295945050505050565b6109d28383835f610a40565b6103c8576109e383835f6001610a40565b610a0b57604051635274afe760e01b81526001600160a01b038416600482015260240161053b565b610a188383836001610a40565b6103c857604051635274afe760e01b81526001600160a01b038416600482015260240161053b565b60405163095ea7b360e01b5f8181526001600160a01b038616600452602485905291602083604481808b5af1925060015f51148316610a96578383151615610a8a573d5f823e3d81fd5b5f873b113d1516831692505b60405250949350505050565b5f60208284031215610ab2575f80fd5b81356001600160e01b031981168114610ac9575f80fd5b9392505050565b80356001600160a01b0381168114610ae6575f80fd5b919050565b5f805f8060808587031215610afe575f80fd5b610b0785610ad0565b9350610b1560208601610ad0565b925060408501359150610b2a60608601610ad0565b905092959194509250565b5f60208284031215610b45575f80fd5b5035919050565b5f8060408385031215610b5d575f80fd5b82359150610b6d60208401610ad0565b90509250929050565b5f60208284031215610b86575f80fd5b610ac982610ad0565b5f805f60608486031215610ba1575f80fd5b610baa84610ad0565b9250610bb860208501610ad0565b9150610bc660408501610ad0565b90509250925092565b5f805f60608486031215610be1575f80fd5b610bea84610ad0565b9250610bf860208501610ad0565b9150604084013590509250925092565b5f8060408385031215610c19575f80fd5b610c2283610ad0565b9150610b6d60208401610ad0565b5f60208284031215610c40575f80fd5b5051919050565b808201808211156102ab57634e487b7160e01b5f52601160045260245ffdfe31e0210044b4f6757ce6aa31f9c6e8d4896d24a755014887391a926c5224d959a2646970667358221220acf60624d70af1babf53b8e91934b5aed9633601accca851d1010a1d0855d6f564736f6c63430008180033",
  "linkReferences": {},
  "deployedLinkReferences": {}
}